S0100000495A492D4343342B2E7372656316
S214004000100A012055640000216400002D640000A1
S214004010316400003D6400004964000000000000B8
S214004020000000000000000000000000F1DB0000BF
S214004030096400000000000081DC0000E5DC0000F0
S214004040FD630000FD630000FD630000FD630000EB
S214004050FD630000FD630000FD630000FD630000DB
S214004060FD630000FD630000FD630000FD630000CB
S214004070FD630000FD630000FD630000FD630000BB
S214004080FD630000FD630000FD630000FD630000AB
S214004090FD630000FD630000FD630000FD6300009B
S2140040A0FD630000FD630000FD630000FD6300008B
S2140040B015640000098F0000D98E0000354300000B
S2140040C0FD630000FD630000FD630000FD6300006B
S2140040D015640000156400001564000015640000F7
S2140040E015640000156400000000000000000000D9
S2140040F0000000008D900000FD630000FD630000DE
S214004100FD630000FD6300002D5D0000855D00007E
S214004110A55D0000C55D0000F55D00004D5E000079
S2140041208D5E0000AD5E0000FD630000FD630000D4
S214004130FD630000FD630000FD630000FD630000FA
S214004140FD630000FD630000FD630000FD630000EA
S214004150FD630000FD63000000000000000000009A
S214004160000000000000000000000000000000004A
S2140041700000000000000000598C0000FD630000F5
S214004180FD630000FD630000FD630000FD630000AA
S21400419000000000C9730000096400000964000004
S2140041A00964000009640000096400000964000056
S2140041B0B972000009640000096400000964000088
S2140041C009640000417300000964000009640000EF
S2140041D00964000031720000FD630000FD6300000A
S2140041E0FD630000A9D90000DDD90000FD630000D2
S2140041F0FD630000FD630000FD63000045D600007F
S214004200FD6300000000000000000000FD630000E9
S214004210FD630000FD630000FD630000B5CD0000F7
S214004220FD63000089CC0000FD630000FD63000014
S214004230FD630000FD630000FD630000FD630000F9
S214004240FD630000FD630000FD630000FD630000E9
S214004250FD630000FD630000FD630000FD630000D9
S2140042600000000010B5054C237833B9044B13B199
S2140042700448AFF300800123237010BD002B0020FC
S21400428000000000000002000C4B43B10C480D4932
S21400429010B5AFF300800C48036823B910BD0A4878
S2140042A0036833B97047094B002BF7D0BDE81040C0
S2140042B01847064B002BF5D0184700BF000000003B
S2140042C000000200042B0020000002000000000096
S2140042D010B41349134A0B6943F400730B61138837
S2140042E043F0010313801388DB07FCD40E4B0F4901
S2140042F051630F4C946340F602704FF000411080FB
S214004300C3F88010BFF34F8FBFF36F8FA022C3F8A0
S214004310801183F81F235DF8044B1960704700BFB7
S2140043200008004000A0004100E100E0F0DA0020B4
S21400433070E3002010B5244B93F84E20910709D562
S2140043400221224A83F84E101368214A0021116088
S21400435003B198471C4B93F84E20520744BF0422E3
S21400436083F84E20184B93F84E20D40706D5174AEC
S214004370D268012183F84E1002B19047124B93F891
S2140043805E20900709D5114A114952680224002080
S21400439083F85E40486002B190470B4B93F85E206E
S2140043A0510744BF042283F85E20074B93F85E2033
S2140043B0D20708D5054A1269012183F85E1012B1AA
S2140043C0BDE81040104710BD00A000411C2B002087
S2140043D0F0DC0020F0B4041D0E4E0F4F2401120234
S2140043E0355945F0010535510C4D47F8203002F49B
S2140043F0FE4207EB800745F8201006EB001342F458
S21400440000120498F8600721325183F84D10F0BC72
S214004410704700BF00A000411C2B002070E5002064
S21400442002281BD8B2F5007F18D82DE9F041234C9E
S2140044304FF0004584B0C4F88050BFF34F8FBFF3F1
S2140044406F8FDFF888E05EF820704FB100201B4BBE
S2140044504FF000421A6004B0BDE8F08100207047BB
S214004460174BDFF86C80044603EB40231846012602
S21400447015464EF82460C04740F20141114AADF897
S21400448000100346ADF8025052F8242002922B4446
S2140044900397019304AB13E90F000B4D05EB0415CE
S2140044A085E80F00240104F1824404F520443046D8
S2140044B0236C43F002032364C9E700BF00E100E079
S2140044C070DD002070E50020F0DA0020F0DC00202F
S2140044D0690A0100F8B52B4B2B4F2C4E2C4C9847F5
S2140044E02C4B2D482D4A04254FF040419D60986284
S2140044F0996293F8421001F0FB0183F8421093F89A
S2140045004200202100F0FE0083F84200C3F8145158
S21400451059609F629E62596093F84500284383F86D
S2140045204500996193F8451001F0FE0183F84510A7
S2140045302546402335F8020B13700233C0F30321DF
S214004540DBB261F07F01482B9070517002F10302DC
S214004550F0D10C221149124B60209847002809DB45
S214004560012502200F4B257298470F4B00221A7028
S2140045702846F8BD0C4A0D4B0321022011709847BF
S2140045800020F8BD755A000020000240000002C05E
S214004590342B00200080004104000040F0E500209D
S2140045A0695B0000B5D0000001E60020A5D0000041
S2140045B0014B187A704700BF342B0020184B1A7A2C
S2140045C010B552B3044600686168164A03C3A31EBA
S2140045D006345988C1F30321117033F8021F517055
S2140045E0A34202F10202F4D10F4A0E490F4B0420F7
S2140045F0C2F81401082260209847044630B10C4ADD
S21400460013780133DBB2022B137001D8204610BD9D
S2140046100220084B9847204610BD6FF06304F5E76C
S214004620342B0020F0E5002000800041695B00008C
S21400463001E60020A5D00000FF2901DC012801D9F1
S2140046400020704710B40A4C0302E0182344405C74
S214004650084C5A549042084818BF42544FF0010381
S21400466008BF405C237018BF10465DF8044B7047C7
S21400467004E70020402B002004E60020FF2916DC7B
S21400468070B40F4B0F4C585C904200D062545A5492
S21400469058180D4D90F80001012690422E7008D053
S2140046A062541944104681F8002170BC70470020FF
S2140046B07047605C194481F8002170BC704700BFE9
S2140046C004E7002004E60020402B0020F0B503B3EA
S2140046D0114E124DDFF848E001EB00240B44344441
S2140046E00127FF2901DC012809D90131994204F18B
S2140046F0010402F10102F4D101232B70F0BD1678FB
S21400470094F800C02F70B44518BF01F80E602670EC
S214004710EBE7024DF0E700BF04E70020402B002047
S21400472004E60020FF28DABF014B185C0020704723
S21400473004E6002038B5674C237813B9AB2800F0A0
S214004740978023782BB1BA284FF0000300F08A80B8
S21400475023702379002B7BD063889BB2B3F5037F4D
S21400476076D2A37962795C494FF40375022A05FB79
S214004770031300F089806279012A00F0A480627930
S214004780002A7CD000226271628892B2511C89B2E3
S2140047906180618898548BB20E2B00F08580638808
S2140047A09BB20D2B5DD9A27963884FF4037101FB90
S2140047B002429BB2528A0D3BC2F30B02934250DD7B
S2140047C00023237063802371A37904EB8303D3F85B
S2140047D0383823B194F84838013384F84838B4F8A8
S2140047E04A389BB243B1B4F84C3801339BB200222E
S2140047F0A4F84C38A4F84A28A579384B9847EDB267
S214004800A37904EB850504EB8303C5F83808D3F8D1
S21400481038383BB9A37904EB8303D3F83828013240
S214004820C3F83828A379D4F850080133DBB2032B39
S214004830A37184BF0023A3710021294B9847294BFD
S2140048404FF080521A60BFF34F8FBFF36F8F38BDA3
S214004850237833B9B4F84A3801339BB2A4F84A38FF
S21400486038BD38BD0122638023702271637138BD64
S214004870012323702379002B7FF46EAFE8E7AC2882
S21400488080D1012262717FE758B96188628813FA85
S21400489081F113FA82F3BA20AB2201F8010C03F877
S2140048A0022C0023637138BDA3794FF4037202FB18
S2140048B003435B8AC3F30B03B3F5007F7FF66FAF4A
S2140048C00023237138BDDC287FF459AF02226271C1
S2140048D05AE700BF482B0020502B0020F1EC0000C8
S2140048E0D5E4000004ED00E02DE9F043ADF5057DCC
S2140048F01C46BDF80E30384E019064F30B031D0ABB
S21400490001203768029760F30715ADF80E30ADF852
S2140049100C108DF80F50114604A822462F4F8C9D80
S214004920B84704F10C0189B200222D4B01A8984724
S21400493004F1100601ABC0431C4480B2B6B2010AB3
S214004940AB22BA23022E607321732A706B7040DD8F
S2140049504FF0000901AC023E26444946C8460220F4
S2140049604FF0AC0C4FF0DC0E102712E0A3F1AC01B8
S214004970B1FA81F14909B9F1000F01D0BA2B16D06E
S214004980A3F1AB09B9FA89F9A6424FEA59191046BC
S2140049901BD014F8013B2B54421C92B20029E5D0E0
S2140049A0DC2BE3D10230AF54002182B2E8E7AB182B
S2140049B002304FF00009A64203F802CC03F801ECDF
S2140049C080B205F802804946E3D10DF5057DBDE8C5
S2140049D0F0830220F9E700BF20408000690A01004A
S2140049E081FD000010B5114CD4F85018A4F85408F6
S2140049F082B039B10E4B0F489847D4F8583843B1B7
S214004A0002B010BD032201200B4B9847C4F8500893
S214004A10F0E70A4A019205220092094909480A4C21
S214004A204FF48072A0470128EAD0FEE7482B00200A
S214004A306554000035470000CDE10000A03300209B
S214004A4094130100A54B00002DEA0000014BC3F8AB
S214004A505C087047482B0020014BC3F8600870477D
S214004A60482B0020014B1878704700BF002200201A
S214004A7070B503685A1C82B0044625D0424A1268B4
S214004A80126B934220D0437B404D03F00F0301216D
S214004A90042B07D0D5F85C38A3B1204602B0BDE899
S214004AA0704018473A4B62681B689A42637B16BF91
S214004AB002226FF3030362F303036373D5F85C38D3
S214004AC0002BEAD102B070BD637B03F00D01012913
S214004AD037D021894FF6FF72914203F00F032DD095
S214004AE02A4DB5F8542822F01F02120447F6E0704B
S214004AF0120C014091422FD00121227B95F86408C8
S214004B00904220D9234846781EBBB5F86628642311
S214004B1003FB02F3C3F30723222B037027D91E4B94
S214004B20019105209847637B227B019903F00F03D0
S214004B300120A5F8660885F86428A9E70021134D2A
S214004B40DBE7124DA6E7B5F866080130A5F866085B
S214004B50F1E700264670EBE70D4A6168126891425D
S214004B6010D00029C9D0191F18BF0121C5E70B4B6B
S214004B700191984744F6206398420199CFD90520C1
S214004B80074BCFE70021B8E734EE0020482B002083
S214004B90204080000022002009D10000E5EC000043
S214004BA0F9D000002DE9F84F314DDFF8D8A0D5F840
S214004BB05008304B4FF47A71984788B195F868489A
S214004BC00426E4B24FF00009A700EB19D3F83838F2
S214004BD0BBB90134E4B2042C28BF0024013EF3D153
S214004BE095F848384A228AF8112013B1002385F830
S214004BF04838D5F8603803B198474B238AF8113007
S214004C00D5E74FF4037303FB04F805EB080B1A4BC8
S214004C10BBF812109844C1F30B01184B0E314046F6
S214004C20002298474FF6FF7398420BF1100B0FD0F7
S214004C3085F8684895F868380133DBB22F44032BB3
S214004C4085F86838C7F8389888BF85F86898C0E748
S214004C50BBF80230C3F30B03032BE9D99BF80330F0
S214004C6013F0F00FE4D14046054B9847E0E700BF4D
S214004C70482B002031E70000502B002081FD00006B
S214004C80714A000000FF012010B5B3F5007F82B026
S214004C900AD900242146074B07489847001BB0FA5C
S214004CA080F0400902B010BD034C0094034CA047AE
S214004CB00446EFE795540000B4330020E9480000AE
S214004CC0104BB3F84A2892B242B1B3F84C280132DE
S214004CD092B20021A3F84C28A3F84A1893F88C2A1D
S214004CE00132D2B2092A83F88C2A09D9B3F84C28A3
S214004CF0002192B2A3F88E2A83F88C1AA3F84C18D7
S214004D00704700BF482B0020024BB3F88E0A80B2D3
S214004D10704700BF482B002070B444789DF90C50B3
S214004D208270012663F3061466F303046FF3C71458
S214004D3001704470C57070BC0420704710B443788E
S214004D400170022464F30613012161F303030021BA
S214004D50C2F3072461F3C713027144714370817074
S214004D60C1705DF8044B0620704700BF43780170A1
S214004D70012262F3061362F303036FF3C7130021E5
S214004D8043708270C1700420704700BF30B443780F
S214004D900170012464F30613032503F07F03202427
S214004DA065F30303002102718470C170437030BC48
S214004DB00520704710B443780170012464F306138D
S214004DC064F303036FF3C713202400210271847079
S214004DD04370C1705DF8044B05207047F0B444780A
S214004DE00170012604F08F0166F303019DF8105050
S214004DF09DF814408280202700269DF81820837195
S214004E006FF3C71187704170C670C5710472427225
S214004E10F0BC0A20704700BF43780170012262F39D
S214004E20061362F3030322216FF3C7130022817077
S214004E304370C2700420704710B44378017001229A
S214004E4062F30613032403F07F0364F303032221B3
S214004E5000228170C27043705DF8044B04207047D6
S214004E6070B544780170012504F08F0465F30304DF
S214004E7022261D466FF3C714002311468670447021
S214004E80C3702A46024B04309847281D70BD00BFE9
S214004E90690A010043780170012262F3061362F387
S214004EA0030321216FF3C713002281704370C27081
S214004EB00420704710B443780170012262F3061391
S214004EC0032403F07F0364F303032121002281708F
S214004ED0C27043705DF8044B0420704770B5447888
S214004EE00170012504F08F0465F3030421261D4696
S214004EF06FF3C7140023114686704470C3702A46A9
S214004F00024B04309847281D70BD00BF690A010097
S214004F102DE9F04744780170012504F08F0165F310
S214004F2003019DF83CE0BDF82090BDF82C809DF86C
S214004F3030C09DF834709DF8386042256FF3C71175
S214004F40002485704170C470BDF824509DF8404020
S214004F501199BEF1000F07D090F801E04FF0020A59
S214004F606AF3030E80F801E083600A9B4260A0F8B3
S214004F700C900361A0F8148080F816C0C7750676FA
S214004F80C5814476C0F81A101E20BDE8F08700BF21
S214004F9070B444780170012565F3061465F30304C4
S214004FA09DF80C60027102256FF3C714002143714F
S214004FB085704470C170867170BC0520704700BF54
S214004FC070B544789DF81450017004F00F0162F338
S214004FD003011026002483808670C47041702A4620
S214004FE00499024B06309847A81D70BD690A010057
S214004FF0F0B444780170022565F3061404F07F04CB
S214005000C3F30727082665F30304002103724772DB
S2140050108670C17044704260F0BC0A20704700BFC2
S21400502043780170022262F30613012262F303033F
S21400503011216FF3C713002281704370C2700420E1
S214005040704700BF43780170022262F3061303F034
S2140050507F0362F303031121002281704370C27044
S21400506002710520704700BF43780170012262F389
S214005070061362F3030380216FF3C71300228170C7
S2140050804370C2700420704710B443780170012248
S21400509062F30613032403F07F0364F30303802103
S2140050A000228170C27043705DF8044B0420704784
S2140050B043780170012262F3061362F30303812131
S2140050C06FF3C713002281704370C27004207047CC
S2140050D010B443780170012262F30613032403F030
S2140050E07F0364F30303812100228170C270437042
S2140050F05DF8044B0420704710B443780170022416
S21400510064F30613012161F3030382246FF3C713CC
S2140051100021426084704370C1705DF8044B082023
S214005120704700BF43780170012262F3061362F3F2
S21400513003036FF3C713002143708270C17004200D
S214005140704700BF70B5447801701E2B4FF0010603
S21400515004F08F0428BF1E2366F303041D466FF376
S214005160C7140023114644708670C3702A46024B4B
S21400517004309847281D70BD690A0100F0B51A4C26
S2140051802368646823F4FF43490223F07F0301F495
S214005190C06143EA400083B008430AB140F480503F
S2140051A04FEA104C4FEA106E010A270A260C250E0D
S2140051B08DF800008DF804408DF8011008236A462B
S2140051C000218DF802C08DF803E0084C8DF80570BC
S2140051D08DF806608DF807500348A047B0FA80F0B7
S2140051E0400903B0F0BD00BF00408000798F00008A
S2140051F030B4294B9B7813F0010F284B1C685B6872
S21400520022D0E50736D501F00301254B1C696FF364
S21400521041041C611C6960F317441C61186961F342
S21400522083001861002A1A6914BF0221002161F365
S2140052300B221A611A6942F002021A61DA68D20772
S214005240FCD5002030BC7047E30702D5154B30BCB8
S2140052501847C4F347039842F8D1C4F3412301F03A
S2140052600305AB42F2D114F4F04418BF0124944273
S214005270E7D0EBE7C4F34703984201F00301C4D13B
S214005280C4F341238B42C0D114F4F04418BF012468
S2140052909442D6D0B9E700BF00200041004080000D
S2140052A0001800407D510000014B1868704700BF91
S2140052B0DC350020024A136801331360704700BFD4
S2140052C0DC35002010B586B0142301AA00210B4857
S2140052D00B4CA0479DF80830B12B0BD006AAB12383
S2140052E002F8103D04210123064C0448A047012083
S2140052F006B010BD002006B010BD00BF0040800004
S214005300118F0000798F00008318B3F5805F0CD8EA
S21400531010B5074CE36A5B07FCD40B4600F18841E6
S2140053201846044B9847012010BD0020704700BF68
S21400533000400041690A01008318B3F5805F16D863
S21400534010B50C4CE36A5B07FCD400F188400A4BAE
S2140053509847084AD36A5907FCD4D36A9B0704D5F2
S2140053604AF233539380012010BD012010BD002067
S214005370704700BF00400041690A0100024A1368F6
S21400538001331360704700BFE03500200C4B1A79DC
S2140053901AB99B6803B118477047014610B51869DB
S2140053A019730124074A5C7300219047064B4FF09F
S2140053B080521A60BFF34F8FBFF36F8F10BD00BFD0
S2140053C0E0350020D5E4000004ED00E070B51F4C89
S2140053D0237D82B02BB1657DEDB2012D03D0002375
S2140053E0237502B070BD237933B9A37DCBB9184BB2
S2140053F04FF48032C3F898200021A069154B9847D7
S214005400154B4FF080521A60BFF34F8FBFF36F8F6C
S2140054102379002BE3D10E4B4FF48032C3F894204F
S214005420DDE701A80D4B9847094B0D49D3F88000DE
S214005430D3F8A020D3F8906056400640564001A806
S2140054408847B303D3D5E575D6E700BFE03500201F
S21400545000800041D5E4000004ED00E0E98900008A
S214005460F989000010B4044C044A054B0146A160BB
S21400547004485DF8044B1847E03500207D530000D3
S214005480D55B0000CD530000014B9875704700BFF8
S214005490E0350020B1F5806F01D3002070472DE97C
S2140054A0F04F284C284B227D0646012283B00D463D
S2140054B0A06922750021984730462946234B984715
S2140054C0667DF6B2012E06D00023E37518462375D6
S2140054D003B0BDE8F08F1421A0691D4B9847002843
S2140054E0F2D0E37D43B3DFF87090DFF87080194F99
S2140054F0DFF86CA001A8C847D7F88010D7F8A0201E
S214005500D7F8903082EA030B0BEA010B8BEA020B0A
S21400551001A8C0471BF4003F304606F1010602D042
S214005520D047052EE6D14FF48033C7F89830094BA4
S2140055304FF48032C3F89420002323752846E37581
S214005540C6E700BFE035002039E10000E55D000059
S21400555031E7000000800041E9890000F989000079
S21400556031EF00002DE9F04182B0104EDFF84880A0
S2140055700F4B02A801254FF48017F52277612946C4
S21400558000F8012D88F80450984700220446094B7D
S21400559088F8042028469847E0B2401BB0FA80F00E
S2140055A04009B76102B0BDE8F08100BF008000414D
S2140055B09554000031EF0000E035002030B583B090
S2140055C0104B8DF805004FF48012F5208DF806106C
S2140055D08DF804005A6100BF00BF0B4D0B4B012233
S2140055E0032101A82A719847094B044602209847D0
S2140055F0E0B2A0F10300B0FA80F0002340092B715E
S21400560003B030BD00800041E03500209554000016
S21400561031EF000010B582B0194B8DF805004FF43D
S2140056208012F5208DF806108DF804005A6100BF30
S21400563000BF144C144B0122032101A82271984785
S2140056400023C0B2237111494FF0805201E07D2B38
S2140056500FD000BF01339BB2FA2BF8D1A0F10300A4
S214005660074BB0FA80F04FF4801240099A6102B0FE
S21400567010BD0A60BFF34F8FBFF36F8FE9E700BF1F
S21400568000800041E03500209554000004ED00E065
S21400569070B582B0154C164A8DF805000023FD261D
S2140056A04FF4801063738DF804600D46506100BFA0
S2140056B000BF0122194620690E4B2271984702212D
S2140056C00D4B01A8984720690C4B0A21984728B132
S2140056D0637B03F0FF000BB1237B2B70044B002190
S2140056E04FF4801221719A6102B070BDE03500203F
S2140056F00080004139E100009554000031E70000C9
S21400570030B5114B83B004460D469847C0B1022C05
S21400571012D020460DF107010C4B984718B96FF0D0
S214005720010003B030BD9DF80730AB420CBF00202F
S2140057306FF0020003B030BD2046054B9847E8E7FF
S2140057404FF0FF30EDE700BFBD550000915600005A
S21400575031EF000010B582B004460DF107010220BB
S214005760054B984728B19DF80700001BB0FA80F05B
S214005770400902B010BD00BF91560000024BA3FBCB
S2140057800030C00805307047CDCCCCCC044BA3FB12
S2140057900023DB0803EB8303A0EB4300C0B2704793
S2140057A0CDCCCCCC10B582B004460DF1070100205C
S2140057B0054B984728B19DF80700001BB0FA80F00B
S2140057C0400902B010BD00BF9156000000F0030271
S2140057D0044B054853F8223080FB0320DB17C3EB4D
S2140057E0A0107047A0130100D34D6210704700BF91
S2140057F02DE9F04106460D4603201C210C4C1746A9
S214005800A047002812DB05F0030141F060010020EC
S214005810A04700280ADB39460120A047002805DB00
S214005820314623460220BDE8F0411847BDE8F08126
S214005830015700002DE9F04F444E454DDFF84091EA
S214005840444CDFF8408185B00023737503900191C6
S21400585002923375404A41494148424B98474FF0BF
S214005860030A4FF480124FF4803B3F4BA261C4F80A
S21400587094B0C4F884B0C4F8A880C4F8A8304FF434
S2140058800033C4F88430394BC4F8A8800220C4F82A
S214005890A8304FF00067A84704206761A847022099
S2140058A0A761A847324B98470120A8470122727586
S2140058B0727D42BB019B03F0030141F060010020B2
S2140058C0C847071E02994FF0010033DBC847071E82
S2140058D003994FF002002DDBC847071E2ADB254B35
S2140058E0022098471B4B4FF480129A61B1681B4BFD
S2140058F0994204D019B1184A19481A4B98473846A5
S21400590005B0BDE8F08F1C210320C8474FF40033D4
S2140059104FF08041184AC4F888B0071EC4F8A81093
S214005920C4F8A820C4F88430104BC4F8A880C4F883
S214005930A830BFDA0220114B98474FF48013A361BA
S2140059400220A847BAF1010A8BD1CFE7E035002044
S21400595031EF0000008000417D5300008D530000B1
S214005960CD530000D55B0000010002C0020002C05B
S21400597065550000B5D00000010000C0A5D00000AD
S214005980015700000000024010B5154B1B7D044671
S214005990D3B12046134B144C9847144B4FF4801247
S2140059A05A614FF08050002340F2771100BF7D2BE4
S2140059B09AB20ED0FA2A0CD001338B42F6D10B4B9A
S2140059C04FF480129A6110BD9F21094B032098471F
S2140059D0DFE72060BFF34F8FBFF36F8FECE700BFAA
S2140059E0E035002031EF000004ED00E000800041CB
S2140059F01556000038B503220021054D054C012040
S214005A00A8470322206100210120A847A06138BDD5
S214005A10CDE10000E0350020F0B589B008AC1746AF
S214005A2044F8200D094D01A80B221E46A8470E99E2
S214005A308DF80F700C2205A80496A847202322464E
S214005A401946034C0348A04709B0F0BDE90A010017
S214005A50798F00000040800010B4044C20230246DA
S214005A60A446194602485DF8044B6047798F00004B
S214005A700040800070B52F4C6378012222702BB155
S214005A802D4B2E4898472D482D4B98472D4B2E4A88
S214005A902E492F4D29484026C3F8E060936943F409
S214005AA080639361A8472B4B24482B4D98472B4B7C
S214005AB02B482C494FF480025A60986299625A60CB
S214005AC093F8561041F0040183F856109A6193F843
S214005AD0562002F0FE0242F0010283F8562093F8A8
S214005AE03B2002F0F0024FF4000142F0020283F87D
S214005AF03B20596098629D62596093F8572042F0A7
S214005B00040283F85720996193F8572002F0FE02AA
S214005B1042F0010283F8572093F83B2002F00F0270
S214005B2042F0200283F83B200021012060702170A3
S214005B30618070BD02360020958B000004E90020CD
S214005B40798B0000001C0040000800400040014126
S214005B50598B00008D8B0000800002C00080004141
S214005B6000000240400002C0F0B50B4C0B4B83B067
S214005B7007460D46204601A9164698473946204650
S214005B804FF40062064B9847F2B229462046054B72
S214005B90984703B0F0BD00BF04E90020D18B000099
S214005BA09D8B0000AD8B000010B5054C6388022B62
S214005BB001D8012010BD034B98470020608010BD1F
S214005BC002360020755A0000014B02229A75704773
S214005BD000340040F0B5494D494C28606069494E94
S214005BE06960494B402140F400506061C6F8A0103F
S214005BF01968AA6041F0010183B01960D86910F0F5
S214005C000100FBD1414C424A1A604FF440374DF632
S214005C10AD0684214FF480225F609E819975C4F89A
S214005C208420BFF34F8FBFF36F8FA026A968394B30
S214005C30C4F88421384F84F83263626000910722EA
S214005C403649B8474FF40023C4F88430BFF34F8F6B
S214005C50BFF36F8F6A68C4F8843184F83363636077
S214005C606AB14FF48013C4F88430BFF34F8FBFF38C
S214005C706F8F8022C4F8843184F834236360AB6865
S214005C8073B1224B4FF40012C3F88420BFF34F8F3A
S214005C90BFF36F8FC021C3F8842183F835135A6091
S214005CA019481F4D02681F4C1F4B002142F002028C
S214005CB002602980218093F8502002F0FE0242F014
S214005CC0010283F8502093F8382002F0F00242F0E8
S214005CD0020283F8382093F8512002F0FE0242F0C8
S214005CE0010283F8512093F8382002F00F0242F0A8
S214005CF0200283F8382003B0F0BD00BF083600202D
S214005D0000080040001C00400034004000E100E0B5
S214005D1004001040C95B0000D54300002834004052
S214005D2026ED002024ED002000800041114A138853
S214005D3001339BB2B3F5806F138024BF002313801A
S214005D400D4B1988138889B29BB299420AD01388E2
S214005D500A490B4A9BB2CB5CDBB29362084B01222A
S214005D601A767047064B01221A75054B01221A76E1
S214005D70704700BF26ED002024ED002024E9002017
S214005D800034004008B5054B1B681BB19847044B10
S214005D9002221A75024B02221A7608BD0836002027
S214005DA00034004008B5054B5B681BB1044A906A96
S214005DB0C0B29847024B04221A7608BD0836002067
S214005DC00034004008B5054B9B6803B19847044B68
S214005DD00621802259831A7608BD00BF08360020A7
S214005DE0003400400A46024B01460020184700BF18
S214005DF021440000114A138801339BB2B3F5827F19
S214005E00138024BF002313800D4B1988138889B292
S214005E109BB299420AD013880A490B4A9BB2CB5CC4
S214005E20DBB29362084B01221A767047064B0122BA
S214005E301A75054B01221A76704700BF28ED002020
S214005E402AED00202CED00200020014108B50B4B68
S214005E50196839B10A4A0B4B12881B8892B29BB25A
S214005E609A4203D0084B02221A7608BD8847064B92
S214005E7002221A75044B02221A7608BD1436002038
S214005E802AED002028ED00200020014108B5054B32
S214005E905B681BB1044A906AC0B29847024B042262
S214005EA01A7608BD143600200020014108B5054BBF
S214005EB09B6803B19847044B0621802259831A76C3
S214005EC008BD00BF14360020002001412DE9F04136
S214005ED0114C124E002364254FF6FF724FF4FE71EC
S214005EE00127201D636063822382A760E581A58168
S214005EF0B0472146206080224FF40060084B984748
S214005F0008B9BDE8F081214680224FF40060054BB9
S214005F10BDE8F041184700BFBCF0002081FD00003E
S214005F2039530000095300002DE9F0473E4F3F4C1F
S214005F30002507232946202207F11000BB607D605C
S214005F40A0473B4B87F836505022197887F8342004
S214005F5003231226F020FF2287F835304FF0FF3358
S214005F607D8787F83C5087F83E503D8787F8FE517E
S214005F7087F83D6087F83F0087F8FF213B6387F886
S214005F80373000293FD02B4E2B4B96F80180F17806
S214005F901A783D6487F83C1087F8FF217D64BD645D
S214005FA0FD643D657D65B8F1000F16D0DFF89C9066
S214005FB006F5DE76AA4616F8044C0AEB05004030D5
S214005FC0224631463844013C0135C84754444545CD
S214005FD05FFA84FA06F12006EDD1CD2387F8FD316D
S214005FE0164C174B4FF6FF724FF4FE71204698473B
S214005FF021464FF4007241F8040D124B00209847DA
S21400600048B9BDE8F087A52307F14000202287F8AD
S214006010FD31A047E4E7211F4FF4007200200A4B31
S214006020BDE8F047184700BF38EE00207F0A0100A1
S214006030B157002040F30020ACF800203CEE0020D2
S21400604081FD00003953000009530000690A010071
S21400605010B5044C044B21464FF4007200209847BC
S214006060204610BD38EE0020095300000048704757
S21400607038EE002010B50D4C0D4B984720464FF6D5
S214006080FF724FF4FE710B4B984721464FF4007297
S21400609041F8040D084B00209847044618B1074BFA
S2140060A09847074B9847204610BD00BF3CEE00209F
S2140060B0E5EC000081FD00003953000035B100001A
S2140060C05174000010B5094C094B984720464FF60E
S2140060D0FF727C21074B9847211F44F8040C80224E
S2140060E04FF40060044BBDE810401847C0F0002095
S2140060F0E5EC000081FD0000395300002DE9F04179
S214006100164C01220023A260636008B12361E3609D
S21400611000234FF6FF7278214DF2D86764261048A8
S214006120104DE382A382638327832677A8478022C5
S21400613020600A490C4B4FF44060984708B9BDE808
S214006140F08180220549094B4FF440609847084B80
S2140061509847084BBDE8F041184700BF80FE012075
S21400616084FE012081FD0000395300000953000021
S21400617035B10000517400002DE9F04F254D95F81B
S214006180019081B0B9F1000F3BD04FF0000ADFF864
S214006190908005F5DE75574601261CE092F84020F3
S2140061A0B34669885044914206F1010600F140006A
S2140061B002D8A988914206D2404422462946164B68
S2140061C098470137FFB2013C5444D9451FFA84FA78
S2140061D005F1200514DD15F8044C08EB0A02701EC4
S2140061E0022C0244DAD108EB0A029119024491F813
S2140061F0401092F8402002EB012292B2B346D0E75C
S21400620017B901B0BDE8F08F044B01B0BDE8F04F00
S214006210184700BF40F30020690A010075600000BF
S21400622038EE002070B50A4C0A4B98470025201D12
S2140062304FF6FF727821084B658398472146206009
S21400624080224FF44060054BBDE87040184700BF01
S21400625080FE0120E5EC000081FD000039530000BF
S2140062602DE9F041524E534C534D31464FF40072D7
S2140062700020A047514B301D4FF6FF724FF4FE71C1
S2140062801E60A847336883427BD04D4B98474D48E5
S21400629090F801E0BEF1000F2BD00027B8463A4632
S2140062A005E001377745DAB200F120001ED090F8FD
S2140062B0B8114B1E01291344F3D13A44B118B0F873
S2140062C0BEC191F840108C4503D8B0F8C0C18C45CB
S2140062D0E7D232440137B0F8BC1182F84010774557
S2140062E04FF00108DAB200F12000E0D1B8F1000F5B
S2140062F029D1354E802231464FF44060A047334BBB
S214006300301D4FF6FF7278211E60A847336883421F
S2140063102AD001202E4B98472E4E802231464FF42D
S2140063200060A0472C4B301D4FF6FF727C211E608C
S214006330A8473368834233D1B3683BB1274B284A1A
S2140063401A60BDE8F081274B9847D2E78022314695
S2140063504FF40060A0470122234BB26098471F4BC2
S2140063601F4A1A60BDE8F081B368002BD4D18022A2
S21400637031464FF44060A04701221C4BB26098475C
S214006380CAE7B368062B82D8012B9CBF002333874D
S21400639002210722134B86F84610B260984776E72C
S2140063A0134B98470D4B0E4A1A60BDE8F08100BFAC
S2140063B038EE00200953000081FD000034EE002076
S2140063C0295F000040F3002080FE012030EE002010
S2140063D0FD600000BCF000203CF1002038F00020FA
S2140063E03CF0002075600000C560000025620000DB
S2140063F0CD5E0000004B184711870000014B5E225F
S2140064005A74FEE700FF0120014B28225A74FEE76B
S21400641000FF0120014B29225A74FEE700FF0120ED
S214006420014B2B225A74FEE700FF0120FEE700BF57
S214006430014B40225A74FEE700FF0120014B212247
S2140064405A74FEE700FF0120014B3D225A74FEE716
S21400645000FF01201B491C4A914208B50ED01B487C
S21400646082420BD2D343034423F003030433134482
S21400647051F8040B42F8040B9A42F9D1144A154914
S2140064808A420AD2D3430B4423F003030433134453
S214006490002142F8041B9A42FBD10F4A0F4B22F010
S2140064A07F029A60D3F8882042F47002C3F88820EE
S2140064B0BFF34F8FBFF36F8F094B9847094B984731
S2140064C0FEE700BF6027010000220020F42A00201B
S2140064D0002B00200CFA00200040000000ED00E039
S2140064E0210A010081C6000030B44B1CC5B24FEA39
S2140064F0501005F01F04C0B227D0C30103F1824339
S21400650003F50043181903EB540390F8402002F0FB
S214006510FE0242F0010280F84020EA070AD493F80F
S214006520302001F00F0102F0F002114383F8301022
S21400653030BC704793F8302002F00F0242EA011197
S214006540C9B283F8301030BC704704EBC01000F1BD
S214006550824000F5004090F8403003F0FE0380F8DB
S214006560403030BC704700BF2DE9F04F87B00B6855
S21400657001939D4A8B8B0C46C3F307231168020ACE
S214006580D51A002DB8BF6D429A42064691F841A032
S21400659091F8467000F0E980002384F83E3094F8C5
S2140065A03E30DFF85482DFF854921B092D11023377
S2140065B0013F032D0493FBB2A8BF032502930123DA
S2140065C05FFA85FB0393BAF1020F52D0874B9847C8
S2140065D000284ED1BAF1010F00F0EE80BAF1030F99
S2140065E000F0D28023682268F31A48BF0F3302EB0C
S2140065F0231304210022236088F8022084F84F2009
S21400660084F84E102368019A9A4265D12368B342F3
S21400661062D02368029AB3422368B4BF013303F101
S214006620FF332360022AA68363685AD922681202BF
S21400663062602268B24204D062689BB2934200F065
S2140066408C806368E3606068694B98476060636845
S21400665098F803201B12A3606368C4F85A302AB166
S214006660E38B98F804109BB2994267D007B0BDE858
S214006670F08F94F85030AB4256DCB8F80030B3F5E3
S214006680AF7F10D9202389F84F3089F850B089F8A9
S2140066904F3289F850B289F84F3489F850B489F8E7
S2140066A04F3689F850B694F85030C3F10403DBB285
S2140066B084F84E30236894F84E102268F31A0B4183
S2140066C01344236094F84F303BBB002388F8023015
S2140066D02368019A9A4299D0029AA683022A63688E
S2140066E0A4D8216822680592C1F30F2107EB072E74
S2140066F04A1CD4F800C03F48724471444FF6FF7EEF
S214006700F44530F8122030F811103AD09DF81400F5
S214006710521A090200FB02128AE794F84F30013B36
S214006720DBB284F84F30D0E794F84F30002BBAD164
S214006730B8F80030B3F5AF7FB5D9A3E7012A98F8CB
S214006740053032D90022C8F80820002B8ED0013B35
S21400675088F8053007B0BDE8F08F039B049A013334
S2140067609A4203937FF42FAF6BE794F83E301F2BCB
S2140067703FF615AF94F83E300133DBB284F83E3076
S2140067800DE76FF07F4253E723682268F31A48BF8D
S2140067903F3302EBA31306210022236088F8022071
S2140067A084F84F2084F84E1092E7002B3FF45EAF3B
S2140067B00022C8F80820CAE7B8F80030B3F5AF7F63
S2140067C07FF610AF23682268F31A48BF0F3302EB38
S2140067D02313236000210422012384F84F1088F835
S2140067E0023084F84E2073E734EE0020F5B800003F
S2140067F029B40000B0130100243600200422002033
S214006800224B03EB412292F85E2058B1D2B2C90067
S214006810002A08BF013103EB81136033D3F802303E
S2140068201E2B1EDC10B41A4A1A4B1B4890601B49DC
S2140068301B4C4FF400124FF080409A619A609862A9
S214006840996293F85520022102F0FE024FF0404074
S21400685083F8552099609C62986259615DF8044BF4
S21400686070470B4B0B4A0F49996092F8553003F06E
S214006870FE0343F0010382F8553092F83A3003F0F5
S2140068800F0343F0600382F83A307047042200207A
S214006890003800420080004100686001200000C00F
S2140068A00200004002686001224B03EB412292F88E
S2140068B05E2058B1D2B2C900002A08BF013103EBEE
S2140068C081136033D3F802301E2B1DDC10B41A4A35
S2140068D01A4B1B4810611B491B4C4FF080724FF03F
S2140068E080409A619A609862996293F858204FF0B7
S2140068F0007102F0FE0283F85820996098629C624C
S21400690059615DF8044B70470B4B0C4A0F491961EF
S21400691092F8583003F0FE0343F0010382F8583033
S21400692092F83C3003F0F00343F0050382F83C3065
S214006930704700BF0422002000380042008000415B
S21400694000686001000100C0000200C0026860012B
S214006950234B03EB412292F85E2058B1D2B2C90015
S214006960002A08BF013103EB81136033D3F80230ED
S2140069701E2B20DC10B41B4A1B4B1C4850611C49C4
S2140069801C4C4FF400524FF04040C3F89820C3F818
S2140069908820C3F8A810C3F8A80093F8CD2080215B
S2140069A002F0FE0283F8CD2099609C6298625961DD
S2140069B05DF8044B70470B4B0B4A0F49596192F830
S2140069C0CD3003F0FE0343F0010382F8CD3092F899
S2140069D0B63003F00F0343F0500382F8B63070472A
S2140069E00422002000380042008000410068600158
S2140069F0002000408000004002686001224B03EB4C
S214006A00412292F85E2058B1D2B2C900002A08BFCF
S214006A10013103EB81136033D3F802301E2B1EDCEA
S214006A2010B41A4A1A4B1B48D0601B491B4C4FF433
S214006A3000224FF080409A619A609862996293F8BB
S214006A405320082102F0FE024FF0404083F8532006
S214006A5099609C62986259615DF8044B70470B4BD5
S214006A600B4A0F49D96092F8533003F0FE0343F007
S214006A70010382F8533092F8393003F00F0343F0E5
S214006A80500382F839307047042200200038004254
S214006A900080004100686001080000C00800004057
S214006AA002686001F0B4184A1849D369184C43F0DC
S214006AB0100343250120D361C4F8F4500A46086049
S214006AC0936813F00103FBD1012113609162146CEB
S214006AD01049114F6FF07F4060F3170402264FF401
S214006AE08075202014649764D6631562C1F88C0004
S214006AF0BFF34F8FBFF36F8FC1F88C0181F86533FA
S214006B00F0BCC860704700BF00080040001000429C
S214006B10001C004000E100E0E0FFFF00F0B4184A6F
S214006B2018499369184C43F4805343250120936118
S214006B30C4F8E4500A460860936813F00103FBD1DA
S214006B40012113609162146C1049114F6FF07F4061
S214006B5060F3170402264FF480754FF080501464DB
S214006B601765D6631562C1F88800BFF34F8FBFF371
S214006B706F8FC1F8880181F85C33F0BC886070477D
S214006B800008004000800141001C004000E100E0D9
S214006B90E0FFFF0070B4184A1849D369184C43F058
S214006BA0080343250120D361C4F8F4500A46086060
S214006BB0936813F00103FBD1012113609162146CFA
S214006BC010494FF6FF7060F317044FF6E076022088
S214006BD04FF480751464D664D0631562C1F88C00D7
S214006BE0BFF34F8FBFF36F8FC1F88C0181F861330D
S214006BF070BCC860704700BF00080040000C004230
S214006C00001C004000E100E0F0B4194A19499369FD
S214006C10194C43F40063432501209361C4F8E45003
S214006C200A460860936813F00103FBD10121136044
S214006C309162146C11494FF6FF7060F317044FF61B
S214006C40E07702264FF480754FF4001014649764C2
S214006C50D6631562C1F88800BFF34F8FBFF36F8FFE
S214006C60C1F8880181F85533F0BC8860704700BFD2
S214006C700008004000600141001C004000E100E008
S214006C80F8B5384A38499369384C43F4804343256D
S214006C9001209361C4F8E8500A460860136913F0AF
S214006CA00103FBD142F2231003254FF4467404215E
S214006CB0136015731486D080517113682C492D4FBC
S214006CC02D4E2E4D43F00203136088472C4B2D4A61
S214006CD0D96A2448DFF894C0DFF8ACE041F08701B9
S214006CE0D9624FF40671116240F277219162022157
S214006CF0C2F824110121C2F8DC115160C26942F4C5
S214006D008042C261802443224FF04040CCF80421E8
S214006D10C7F814E09C609E62986293F8472002F0E1
S214006D20FB0283F8472093F847204FF4005102F007
S214006D30FE0283F847205C61C3F88810C3F8A850A9
S214006D40C3F8A80093F8CD2002F0FB0283F8CD200C
S214006D5093F8CD2002F0FE0283F8CD20C3F89810F9
S214006D60F8BD00BF0008004000C00141001C004004
S214006D70A56A000000380042800000400020004065
S214006D800080004100E0004100686001F8B5314A2B
S214006D9031495369314C43F4004343250120536184
S214006DA0C4F8A4500A460860136913F00103FBD127
S214006DB0042403254FF4467042F223111360157322
S214006DC01086D180547113682549264F264E43F00D
S214006DD0020313608847254B254AD96ADFF898E0F6
S214006DE041F40301D96240F21D21116340F275217E
S214006DF0916308204FF04041C2F82C41C2F8D451AC
S214006E005460C7F80CE098609E62996293F843203D
S214006E10184C02F0FB0283F8432093F843204FF40B
S214006E20002102F0FE024FF0804583F843205861AF
S214006E3099609D629C6293F8532002F0FB0283F8EF
S214006E40532093F8532002F0FE0283F853209961F2
S214006E50F8BD00BF00080040003C0040001C004099
S214006E601D6B000000380042080000400080004112
S214006E7000E00041080000C000686001F8B5324A32
S214006E8032499369324C43F4005343250120936101
S214006E90C4F8E8500A460860136913F00103FBD1F2
S214006EA042F2231003254FF4467404211360157331
S214006EB01486D080517113682649274F274E284DD7
S214006EC043F0020313608847264B274AD96ADFF847
S214006ED09CE041F4194140F2162440F27620D96233
S214006EE01464062190640520C2F828114FF000743F
S214006EF0C2F8D80110214FF080405160C7F810E06A
S214006F009C6098629E6293F8592002F0FB0283F818
S214006F10592093F859204FF0807102F0FE0283F852
S214006F2059205C61996098629D6293F8582002F03F
S214006F30FB0283F8582093F8582002F0FE0283F8EC
S214006F4058209961F8BD00BF0008004000A001412C
S214006F50001C0040956B000000380042000200C094
S214006F60000100C00080004100E0004100686001B0
S214006F70F8B5324A32495369324C43F480434325CC
S214006F8001205361C4F8A4500A460860136913F040
S214006F900103FBD142F2231003254FF4467404216B
S214006FA0136015731486D080517113682649274ED6
S214006FB0274D284F284C43F0020313608847274B81
S214006FC0274AD96A41F00141D9624FF41D70082161
S214006FD040F2122EC2F850E09065C2F83011072039
S214006FE04021C2F8D001516002204FF04042B76005
S214006FF098609D629A6293F8412002F0FB0283F843
S214007000412093F841204FF4001102F0FE024FF0A9
S214007010804583F84120586199609D629C6293F890
S214007020552002F0FB0283F8552093F8552002F015
S214007030FE0283F855209961F8BD00BF00080040A5
S21400704000380040001C0040096C00000038004278
S2140070500200004000686001200000C0008000417F
S21400706000E00041814205D006D9091AD14001440A
S21400707088420AD008467047411AD140411A8842D1
S21400708008BF01F1FF3108467047013108467047D6
S214007090024B9889003018BF012070472436002024
S2140070A00C4B0D4A10B5A3FB00130C4C0021DB085B
S2140070B00846A381904701210020094B98470221EA
S2140070C00020084B984703210020074BBDE81040DE
S2140070D0184700BFCDCCCCCC516900002436002028
S2140070E0FD690000A96800000168000070B5474B04
S2140070F0474E9847F3889842054624D2454CA37BD2
S2140071000133DBB2072BA37364D843B9B3889D421F
S21400711050D2E37B0133DBB2072BE37364D84CF623
S21400712008739D4236D9237C0133DBB2032B2374CC
S21400713065D8394B9847637C00B30133DBB2092B23
S214007140637457D870BD03F57A73324C9842A37BAC
S2140071500DD3002BDAD0013BDBB2A373002BDED1BC
S2140071602E4B04209847A37B002BCFD0D7E7002BCD
S214007170CCD04FF47A702A4B9847D0E7002BE1D05A
S214007180013BDBB26374002BDCD10720254BBDE846
S214007190704018474CF61F339D42CAD8237C002BFC
S2140071A0C7D0013BDBB22374002BC2D106201D4B97
S2140071B09847BEE703F5FA739D42B0D3E37B002BF6
S2140071C0ADD0013BDBB2E373002BA8D10120154BF9
S2140071D09847A4E70420144B984704224FF4FA601B
S2140071E00F4BA27398479AE7104B01209847042349
S2140071F0E37394E707200D4BBDE8704018470B4B30
S214007200062098470423237493E700BFB9CE0000F6
S21400721040F30020243600205DB40000B5D0000006
S214007220A170000009D10000A5D00000F9D0000030
S21400723070B41F4B1F4C93F85F0093F85E100A1C47
S214007240C0B218BF012200EB021202F1180603EBCF
S214007250860602F13805D6F80260E66603EB850579
S2140072605832D5F80250256703EB820201F0FF0181
S214007270D2F80220626793F85F200132D2B20F2A5A
S21400728083F85F2084BF002283F85F2093F8F22102
S21400729052B2904207D1B1FA81F14909FF2283F830
S2140072A05E1083F8F221034B0122DA6270BC70474D
S2140072B0042200200010004270B41F4B1F4C93F8AD
S2140072C05F0293F85E120A1CC0B218BF012200EBE0
S2140072D0021202F1180603EB860602F13805D6F80C
S2140072E00262E66603EB85055832D5F8025225673A
S2140072F003EB820201F0FF01D2F80222E26793F864
S2140073005F220132D2B20F2A83F85F2284BF0022A6
S21400731083F85F2293F8F22352B2904207D1B1FA73
S21400732081F14909FF2283F85E1283F8F223034BAA
S2140073300122DA6270BC70470422002000800141FE
S21400734070B41F4B1F4C93F85F0493F85E140A1C2E
S214007350C0B218BF012200EB021202F1180603EBBE
S214007360860602F13805D6F80264E66603EB850564
S2140073705832D5F80254256703EB820201F0FF016C
S214007380D2F80224A26793F85F240132D2B20F2A01
S21400739083F85F2484BF002283F85F2493F8F225E5
S2140073A052B2904207D1B1FA81F14909FF2283F81F
S2140073B05E1483F8F225034B0122DA6270BC704734
S2140073C004220020000C004270B41F4B1F4C93F8A0
S2140073D05F0693F85E160A1CC0B218BF012200EBC7
S2140073E0021202F1180603EB860602F13805D6F8FB
S2140073F00266E66603EB85055832D5F80256256721
S21400740003EB820201F0FF01D2F80226626793F8CE
S2140074105F260132D2B20F2A83F85F2684BF00228D
S21400742083F85F2693F8F22752B2904207D1B1FA5A
S21400743081F14909FF2283F85E1683F8F227034B91
S2140074400122DA6270BC704704220020006001410D
S214007450704700BF2DE9F0474B6A0C46914606463A
S2140074609847A36A07469847954B80469847954A9B
S214007470DFF868E24A44054692F87430D4F8E6012C
S214007480C3EB033109028908AEFB0131C90AC1F317
S2140074904E03984238BFC4F8E61163681B1206FB19
S2140074A003F31B0CA4F8F431D4F85A20121290B24D
S2140074B0B0F5005F1FFA85F915D394F83F00092848
S2140074C040F2F0804FEA084892B298FBF2F29142FE
S2140074D0D4F8E601DFF808A238BF11460822D047E4
S2140074E0C4F8E6010AE0002284F83F20D4F8E6015A
S2140074F0DFF8ECA10822D047C4F8E601A268002A0B
S214007500D8BF00272787218F628F914284BF228FA2
S2140075106287A4F84290B4F84210228FDFF8C49134
S21400752091423CBFB4F84220228740F2EA2202FB96
S21400753003F3D4F8E621B3FBF2F34E2B38BF4E2309
S214007540A3F11207A387A786D4F8E611B4F8422061
S214007550D4F8E6E1B4F84800A2EB0E0240F25B680D
S21400756009FB06FE01EB810108FB12E2C90003FBE2
S2140075700121090CC639B1F5805F94F84E2028BF6A
S2140075800021D04740F6FF7280B2904228BF1046D6
S214007590B0F5007F38BF4FF40070A4F84800D4F868
S2140075A04A20D4F8E611B4F84200D4F8E6E1121204
S2140075B001EB8101A0EB0E0006FB02F2C90003FB03
S2140075C001F108FB00F8121409FB021208F5460840
S2140075D0B4F84800B4F848E03B49424586BFA2EB01
S2140075E00802120C0022A0F5007002FB00F2B2FBAB
S2140075F0FEF202F50072A4F84020B4F8402040F6EF
S214007600FF70824228BF0246B2F5007F38BF4FF4B3
S2140076100072A4F84020B4F84000D4F8E621D4F86C
S214007620E6E14EF64C7C0CFB001107EBC70007EBBF
S2140076308007ADB207F29A27AA1A0EFB171740F278
S214007640F15101FB0277228F3F0C02FB07F73F0A3E
S214007650C4F8EA71D4F8E601D4F8E62102EB820118
S2140076602D1A02EB4102C5EBC50503FB02F3C3EB83
S21400767085131B0C03F29E43C4F8FC31E38B012BED
S21400768019D0E38B022B18D0E38B032B0CBF0F4AC9
S2140076900F4AA38E5386A38E03339BB21386E686C9
S2140076A0BDE8F08794F83F20DFF834A00132D2B26C
S2140076B084F83F2022E7074AEBE7074AE9E700BFDE
S2140076C0E1CE0000ACF80020B0C8B80000A0014130
S2140076D00038004000C00141003C0040A7649626E8
S2140076E06570000014A20300064B074910B403EBB4
S2140076F04003064C0246B3F8940023465DF8044B5C
S214007700184700BFACF80020042200205574000083
S214007710064B074910B403EB4003064C0246B3F889
S214007720940023465DF8044B184700BFACF80020D1
S2140077300424002055740000064B074910B403EBE0
S2140077404003064C0246B3F8940023465DF8044B0B
S214007750184700BFACF8002004260020557400002F
S214007760064B074910B403EB4003064C0246B3F839
S214007770940023465DF8044B184700BFACF8002081
S214007780042800205574000070B50E4E0E4D0F4CA8
S214007790B5F8940031460022A04706F50071B5F80A
S2140077A096000122A04706F58061B5F898000222EF
S2140077B0A04706F5C061B5F89A0023460322BDE847
S2140077C07040184704220020ACF8002055740000D2
S2140077D030B51549154C8B69154D1648012243F0F6
S2140077E080038B6183B02A7022708047124B9847C3
S2140077F0124B9847124B9847124B98470223237018
S214007800114B9847114A53690BB103B030BD14327F
S21400781006218DE806000E480E490F4C4FF4007204
S214007820A0470128F1D0FEE70008004000380042DB
S21400783000E00041816C00008D6D00007D6E000050
S214007840716F0000D54400008977000024360020C0
S2140078508D810000F81901002DEA0000014B98699F
S214007860704700BF24360020054904228B8B9BB24C
S2140078701BB9013AFAD1012070470020704700BFBB
S2140078800422002003280DD8074B03EB4020406855
S21400789038B1642300FB0330000E01D0C0B270473D
S2140078A0012070470020704704220020124904225D
S2140078B08B8B9BB2BBB9013AFAD170B50F4C104D09
S2140078C0A047104B1B685B8B032B04D8EA690E4B52
S2140078D0801A984208D90D4B98470D4B984720B10F
S2140078E0A047E86170BD704770BD012318460222AC
S2140078F00521084EB047F3E704220020E5EC00001F
S2140079002436002030EE0020FF2D93022562000072
S214007910F5B80000C1D1000010B5404C23884FF6E2
S214007920FF7293421CBF0133238094F8203001334A
S214007930DBB2632B19D884F82030394B984794F87B
S21400794028300133DBB2072B18D884F82830638D33
S214007950344A01339BB25121632B638551741ED880
S214007960322B25D0192B38D010BD636A0021013385
S2140079700322636284F820106271DEE794F82930EF
S2140079800022012B84F8282020D0627952B90133D6
S214007990DBB2102B00D9002384F82930D7E7002368
S2140079A0638510BDE1780029F1D0013A6271EEE7F7
S2140079B01D4C23685B07D7D51C4B02214FF4007083
S2140079C09847236823F00403236010BDE27802B3CF
S2140079D06279002AE9D10223DEE7A38D01339BB248
S2140079E0092BA385C0D9124BD97869B11148836990
S2140079F0002BB9DC002302E09269002AB4DC0133D4
S214007A008B4200EB4322F7DB0B4B98470023A38502
S214007A1010BD022384F8293099E700BF24360020E1
S214007A2075C2000000FF0120B4F9002051C6000016
S214007A30ACF8002004220020DDAF00002DE9F8435A
S214007A40714C724B94F85E509847714B9847B5FA54
S214007A5085F5704B98476D096F4B984704EB851377
S214007A606E4AD3F862001064D3F8E2605664D3F826
S214007A70620190644FF0010C4FF0FF0E84F85E50E8
S214007A8084F85FC084F8F2E1D3F86270644E65480B
S214007A906549BFB2013F5763D3F862723764D3F8C3
S214007AA0E292C6F84490D3F86273376584F85E5263
S214007AB084F85FC284F8F2E3D3F86272BFB2A7F22A
S214007AC02F477763D3F862740764D3F8E294C0F85C
S214007AD04490D3F86275C76484F85E5484F85FC433
S214007AE084F8F2E5D3F86274BFB2A7F65E07476380
S214007AF0D3F862760F6403F5DC6703F5CC68D7F835
S214007B0002704F6403F5EC63D3F802308B6484F89C
S214007B105E5684F85FC684F8F2E7D8F802309BB267
S214007B20A3F68D434B6372B6136843F002031360EB
S214007B30336843F002033360036843F002030360D4
S214007B400B6843F002030B6093689C07FCD4344A2E
S214007B5093689807FCD4334A93689907FCD4324A52
S214007B6093689B07FCD462B63048314B314C446175
S214007B7093F8CD20304902F0FE0242F0010283F86D
S214007B80CD2093F8B62002F00F0242F0500283F8A0
S214007B90B620C46093F8532002F0FE0242F00102C1
S214007BA083F8532093F8392002F00F0242F0500277
S214007BB083F83920046193F8582002F0FE0242F060
S214007BC0010283F8582093F83C2002F0F00242F0BD
S214007BD0050283F83C20846093F8552002F0FE02EC
S214007BE042F0010283F8552093F83A2002F00F0283
S214007BF042F06002012083F83A2081F82E0081F8D6
S214007C002F00BDE8F88300BF04220020A56A00000C
S214007C101D6B0000956B0000096C00000010004210
S214007C2000800141000C0042006001410038004223
S214007C300080004102686001243600200000000039
S214007C402DE9F04F8DB00023DFF874A30293049360
S214007C500693059302994E020AEB06035A68002A19
S214007C6040F3D481CAB2DB6A0392104698470AEB07
S214007C7006039B69002B03DD069B0133DBB20693EC
S214007C800AEB06039B690793029B13B9FF238AF846
S214007C9000380AEB060393F85E505A68EDB2002AE5
S214007CA000F01481BF4A9289002A40F00F819AF9A9
S214007CB00048002CC0F2C3810AEB442212691A6104
S214007CC0B5FA85F35B09029A08930AEB060B1B01CB
S214007CD003EBC21801930BF148031F460996DFF821
S214007CE0E49200252346464661E0D0F80280A8F1DB
S214007CF0030E731918330AEB830340F22D10D3F8E2
S214007D000280BBF84020BBF83630A8EB0E0800FB1C
S214007D1008F0000B92B202FB00F2120BBBF842E036
S214007D20A1489BB202F2EA2203FB02F29F4B1FFA23
S214007D308EFEB2FBFEF49847DBF80430B3F5000F76
S214007D4000F03F005FDBDBF80430B3F5300F5ADCA1
S214007D50DBF80430964AC3F5300300FB03F0A2FBC1
S214007D600030400DD9F8003093F84130013B012B2C
S214007D7098BF00202218B8F1000F01D14FF001087B
S214007D80731938334245C4460AEB830357D2A8EB2F
S214007D900208C3F80280731958330AEB83030135CF
S214007DA0102DC3F802C000F00F819AF90038002B9E
S214007DB04CDB019A02EBC3132B44183372190AEBFF
S214007DC0830318320AEB8202D3F80230C2F802307C
S214007DD0701918300AEB8000D0F80220DBF8043067
S214007DE0D0F802C082FB03234FEA126848EA032851
S214007DF008F1030EE6453FF678AFBEF1000F08BF68
S214007E004FF0010E75E7DBF80430B3F5300F14DAE7
S214007E10DBF80430B3F5806F0FDDDBF80430B3F524
S214007E20801F9FDADBF80430A3F5806300FB03F0C5
S214007E30604B800AA3FB003094E7002092E7012203
S214007E4058885A80002298889A80A4E7D7F802308B
S214007E50594AB3F5000F32F81500D7F802301BDC8C
S214007E60D7F80220B2F5802F1BDBB3F5801F03D2B4
S214007E701B0903FB00F0000C73191833DBF8102005
S214007E800AEB83030BF5F07E1044DEF80220B2FB0B
S214007E90F0F2C3F802209BE7484A934204DD8008CC
S214007EA0EAE74FF48043E4E7D7F80230B3F5300F43
S214007EB080F2C380D7F802303D4AC3F530031B1169
S214007EC000FB03F0A2FB0030400CD5E70AEB0603EC
S214007ED0002098611B6B039998470AEB06039B6981
S214007EE0002B06DD059A03991346002A08BF0B46A9
S214007EF005935644B369002B03DD049B0133DBB2C4
S214007F000493029B0133042B02937FF4A3AE049BDD
S214007F10002B00F09D80059B0025DE010AEB452323
S214007F20996939BB93F85E00B0FA80F04009000109
S214007F30841900EBC510621818320AEB8202431847
S214007F40D2F802E003F1180703F1580238330AEBBF
S214007F5087070AEB82020AEB830301310EF1FF3832
S214007F60AEF1020C1029C7F802E0C2F80280C3F88E
S214007F7002C0E0D10135042DD0D1069B002B00F0C5
S214007F80D880059B0AEB432393F85F30023303F057
S214007F900F038AF8F2318AF8F2338AF8F2358AF853
S214007FA0F2378DE0243600205CF10020318C000092
S214007FB0ABAAAAAA05104000B8190100FFFFA3004B
S214007FC00422002034EE0020029A089B099E03EB50
S214007FD0C2030AEB83130AEB0602D3F86210516160
S214007FE003F5B073D3F802309361079B2BB95C4B53
S214007FF093F82E30002B40F091809AF90038002B31
S214008000BCBF9DF808308AF8003866E70022B3F84F
S214008010EA11A3F8EA21B3F8EC41A3F8EC21B3F88F
S214008020E6019DF80810A3F8E621B3F8E8010391ED
S214008030A3F8E821A3F8402019E600201CE74833FF
S214008040D3F80230002B51D10AEB0602136137E653
S214008050069B4BB9FF238AF8F2318AF8F2338AF886
S214008060F2358AF8F2372BE0059B3E4A3C4D0AEB88
S214008070432393F85F30023303F00F038AF8F2319C
S2140080808AF8F2338AF8F2358AF8F237904736489B
S214008090049F04683549364A364B67F3410404604A
S2140080A0086885F82E7067F341000860116867F36A
S2140080B0410111601A6867F341021A602E4B984717
S2140080C0BAF84000ADF82800BAF840422B4BBAF890
S2140080D04014BAF84026ADF82A400AA8ADF82C108D
S2140080E0ADF82E2098470DB0BDE8F08F244A934295
S2140080F019D9B3F5800F2AD86FF4A972A3F5F13316
S214008100134446F22660A3FB00011E4F12A3D3E9D8
S2140081100023B84700F23A739BB295E7136B0399B6
S2140081200120984769E70AEB060240F23A731361AA
S214008130C6E5FF238AF8F2310A4A8AF8F2338AF84B
S214008140F2358AF8F23790470F4B9847B6E746F66F
S214008150605379E7AFF30080AD1C3E0000000000DE
S21400816024360020D1EC00000010004200800141BF
S214008170000C0042006001412DEE0000BD450000ED
S21400818053E30100050701003D7A00002DE9F04F9A
S214008190A74BA84E83B09847A74BA84A4321C3F8DD
S2140081A09010536943F480635361337843F00103BE
S2140081B03370736813F00103FBD13362F361F26925
S2140081C09F4DDFF8D4B29F48DFF8D0A29E4C9F4F59
S2140081D0DFF8CC92DFF8CC8242F00072F261326AAD
S2140081E042F400523262F26942F40032F261F269FD
S2140081F040F6510E42F00202F261C6F808E0316B1A
S214008200402241EA0E013163736300936A60A862FC
S214008210C5F828B06A6095F8461041F0040185F864
S214008220461006204FF41811AA61D0474FF400629A
S21400823087496A60A962C5F828B06A6095F84B104D
S21400824041F0040185F84B100B204FF42C11AA6165
S214008250D04710227F496A60A962C5F828B06A60D4
S21400826095F8441041F0040185F8441004204FF4BA
S2140082701011AA61D047012277496A60A962C5F841
S21400828028B06A6095F8401041F0040185F8401067
S214008290AA61009B19461846D04732786F4942F0CB
S2140082A0020232708847009BA3701A460193AAB157
S2140082B002200646B847A389522289F8112083B1C6
S2140082C0013BC6F10A00A381B847654B984723884F
S2140082D0182B00F2E980A278002AE9D1052006468C
S2140082E0E8E7604B984740B95F4B64209847C6F173
S2140082F00A00B8475D4B9847EDE75D4B9847002866
S21400830000F0DF800025A5615A4B03EB452303F5FB
S214008310F4730135D3F80230A269042D1344A36127
S214008320F2D12388182B00F2D2802623DFF844A14E
S21400833089F811304FF0000B98F803305B4508EBD6
S2140083400B0251464FF000006EDD4B4B107E9847F7
S21400835051464A4B98470BF1010BBBF1040F0AF547
S214008360007AE9D12A22464B89F811209847A2784C
S214008370002A0CBF0A200520801B80B2B8472422A2
S214008380404B89F811209847002800F0A38094F805
S2140083903020002A00F0A580013A84F83020A37827
S2140083A0002B00F0848094F83130002B7FD101231D
S2140083B084F83130344B9847009B06462BB9334B34
S2140083C01B685B0723D4009685E72A4B9B8B9BB2E2
S2140083D033B9013DF3D0274B9B8B9BB2002BF8D0D3
S2140083E0A378002B009BA6EB030A0CBF0A230523E9
S2140083F053457AD3019B002BE1D0013B0193DED19C
S214008400234B09209847214B1B685B07DBD5214B84
S21400841002214FF4007098471C4B1C4A1B680096BC
S21400842023F00403136056E7144B984793E700BF06
S214008430CDB2000000280040001C004000080040AC
S21400844000800041400002402436002031EF00004A
S21400845000080240100002400100024075C80000FB
S2140084601979000011B90000A170000075C2000063
S214008470B14500000422002049BF000069650000E5
S214008480417C0000A95B0000E5EC0000B4F9002088
S21400849009D1000051C60000000002C0E9640000D7
S2140084A000FF0120ACF80020134B984713E7134B4E
S2140084B09847134B9847134B9847002384F831305E
S2140084C078E7114B984700287FF41CAF03E70A4B68
S2140084D098472AE70D4B58469847C82384F830300B
S2140084E05DE758460A4B984759E7084B09209847D6
S2140084F04FF4C873019362E7ED700000197900002D
S214008500AD780000A1C10000D5440000F9D00000FD
S21400851009D1000070B50B4A0B4C53690B4D0C4942
S21400852043F4807353612046256088472046094BF4
S2140085304FF400624FF47A7198472046064BBDE828
S214008540704018470008004064F1002000200040FA
S214008550CD97000011980000D998000000B583B0B0
S214008560064B01A89847064B9A680AB9A5221A73C3
S21400857001A8044B984703B05DF804FBE9890000A6
S21400858000200040F989000070B5074A074CD369FF
S214008590074D084943F48063D3612046A847204628
S2140085A0054BBDE870401847000800405CF100200D
S2140085B0218C000000280042298C00002DE9F041A3
S2140085C02D4F2E4E2E4D84B001A8B047D7F88020F0
S2140085D0D7F8A030D7F890405C40144001A85C4023
S2140085E0A8476846B047D7F88010D7F8A020D7F835
S2140085F0903082EA030808EA0108684688EA02081A
S214008600A84718F4000F0CBF0023022302A8C4F3E7
S21400861080541C43B047D7F88010D7F8A020D7F86E
S214008620903082EA030808EA010802A888EA0208ED
S214008630A84718F0804F0CBF0023042303A81C4350
S214008640B047D7F88020D7F8A030D7F890605E40C3
S21400865016405E4003A8A847002E04DBE0B20130B7
S21400866004B0BDE8F08144F008040F2CF6D10120D8
S21400867004B0BDE8F08100BF00800041E989000039
S214008680F98900002DE9F0411E4DDFF880801E4E6E
S21400869084B002A8C047D5F88020D5F8A030D5F819
S2140086A090405C40144002A85C40B04701A8C04718
S2140086B0D5F88020D5F8A030D5F890705F401740E8
S2140086C001A85F40B04717F4804F0CBF0023022379
S2140086D003A8C4F300341C43C047D5F88020D5F85F
S2140086E0A030D5F890505D4003A815405D40B047D7
S2140086F015F4004F0CBF00200420204304B0BDE852
S214008700F08100BF00800041F9890000E98900007F
S2140087102DE9F0419F4BA04DA04EA14FA14C98478C
S214008720A14BA249A248DFF8B4E24FF48002C3F896
S2140087308420C3F8A810C3F8A800C3F8842093F8D0
S214008740D60040F0040083F8D600C3F8982093F8CB
S214008750D62002F0FE0283F8D6204FF40002C3F8BB
S2140087608420C3F8A810C3F8A8E0C3F8842093F8C0
S214008770D700DFF86CE240F0040083F8D700C3F8B7
S214008780982093F8D7208B4802F0FE0283F8D72073
S2140087904FF08042C3F88420C3F8A810C3F8A8504E
S2140087A0C3F8842093F8DE5045F0040583F8DE50C5
S2140087B0C3F8982093F8DE5005F0FE0583F8DE50E7
S2140087C04FF00045C3F88450C3F8A810C3F8A8605B
S2140087D0C3F8845093F8DF6046F0040683F8DF6041
S2140087E0C3F8985093F8DF5005F0FE0583F8DF5085
S2140087F04FF48055C3F88450C3F8A870C3F8A80097
S214008800C3F8845093F8CC6046F0040683F8CC6036
S214008810C3F8985093F8CC5005F0FE0583F8CC507A
S2140088204FF48045C3F88450C3F8A8E0C3F8A80006
S214008830C3F8845093F8CE60DFF8A8E146F004064B
S21400884083F8CE60C3F8985093F8CE5005F0FE0536
S21400885083F8CE5007F5E0474FF40045C3F8845040
S214008860C3F8A870C3F8A800C3F8845093F8CF6084
S214008870514F46F0040683F8CF60C3F8985093F83B
S214008880CF504E4E05F0FE0583F8CF504FF00065F2
S2140088905D619D609A62C3F828E093F85B5005F02E
S2140088A0FE0583F85B504FF40035C3F89450C3F8C8
S2140088B08850C3F8A820C3F8A86093F8D15005F0F4
S2140088C0FE0583F8D1504FF480155D619D609A6275
S2140088D09F6293F854503A4F05F0FE0583F85450C3
S2140088E006F102164FF480255D6099629E6293F849
S2140088F05210344E344D01F0FB0183F8521093F8B9
S214008900521001F0FE0183F852104FF48061C3F854
S2140089108410C3F8A870C3F8A800C3F8841093F8AE
S214008920CA0040F0040083F8CA00C3F8981093F811
S214008930CA104FF4803001F0FE0183F8CA10C3F865
S2140089409400C3F88800C3F8A820C3F8A86093F87A
S214008950D0204FF400604FF0404102F0FE0283F852
S214008960D020C3F88800C3F8A840C3F8A81093F82E
S214008970CB2002F0FE0283F8CB20A84723691349D8
S2140089801348144A43F0400323619047124BBDE856
S214008990F0411847C58C0000004002C0008002C0AD
S2140089A00010024000080040008000410000024025
S2140089B0400002C0000002C0100000C0020000C05C
S2140089C000040240010000C0158500000040004180
S2140089D040F10020158A000089850000800002C052
S2140089E000400240000800C0EFF31083036072B638
S2140089F0BFF35F8F704700BFBFF35F8F036883F3DB
S214008A0010887047436903B118477047836903B1FC
S214008A101847704710B5044B0446984718B9034AE0
S214008A20034B84E80C0010BD2D8E0000058A000064
S214008A300D8A00002DE9F84F244F1E4605460C46C9
S214008A409146B847224B074628469847B6F5007F1A
S214008A5037D800FB07F0A0422FD3331998422CD307
S214008A60DFF87880D8F800304FEA543A9A451CD0A0
S214008A7021462846DFF868B0D847D0B924F4FF511D
S214008A8021F01F012846134B98470127C8F800A07D
S214008A9021462846D84760B92146284633464A46E6
S214008AA00D4CA0473846BDE8F88FDFF834B00027F5
S214008AB0EEE76FF01000BDE8F88F6FF00D00BDE830
S214008AC0F88F6FF01E00BDE8F88F00BF818E0000A3
S214008AD0898E0000918E0000AD8E0000603600206A
S214008AE0C18E0000034B1B68B3EB503F14BF012040
S214008AF0002070476036002030B585B005890391A8
S214008B0014460292074BADF804504FF4004201A9F8
S214008B101438ADF806209847002808BF204605B050
S214008B2030BD00BFB192000030B585B00589039115
S214008B3014460292074BADF8045048F2010201A910
S214008B401438ADF806209847002808BF204605B020
S214008B5030BD00BFB192000010B5044B04469847E4
S214008B6018B9034A034BA261636110BD2592000049
S214008B70298B0000F98A000010B5034B044698477D
S214008B8008B9A061606110BD31920000004B184723
S214008B9055920000004B18479D920000C1F3090152
S214008BA002F480620A4382831046704710B584B090
S214008BB0848B03910292054BADF804404FF40042BB
S214008BC001A9ADF80620984704B010BDB192000088
S214008BD014300860002070472DE9F0470679002E13
S214008BE008BF20268E4212D2A9B10025DFF82C90AD
S214008BF080460F462C464046C8473319A040DCB294
S214008C00A74245EA0005F6D82846BDE8F087034B9C
S214008C10BDE8F04718470D46F6E700BFC1970000CD
S214008C20004B184781970000004B1847B19700008B
S214008C302021014B184700BFD98B0000044A054984
S214008C401368002B08BF0B46184410601846704780
S214008C5064360020100A012038B5194B1D682B68B1
S214008C601C6DE00728D4A20522D4A3011BD4E00182
S214008C7014D4220209D52A68EB68526C12F0200F31
S214008C8014BF0221012128469847230703D5EB6825
S214008C900421284698472B681C6538BDEB680021E0
S214008CA028469847E5E7EB68032128469847DEE71D
S214008CB06B6828469847D8E7AB6828469847D2E7B7
S214008CC06836002010B50A4A0A4913889BB243F456
S214008CD0407313808847084B9847084B9847084BC3
S214008CE0984740F6FF70074BBDE81040184700BF96
S214008CF000400041F58F000009900000598D0000EB
S214008D0021900000098D0000C10707D50E4A0F4BC1
S214008D10136243F6FD7153680B42FCD1820707D5F8
S214008D20094A0B4B536243F6FD7153680B42FCD164
S214008D30030708D5044A074BD36243F6FD71536810
S214008D400B42FCD170477047001C00400701010031
S214008D500701080008010100014B01225A71704703
S214008D600008004070B48E08448AE507FCD54AF235
S214008D7015548480448AE407FCD54BB1C2EB8606C2
S214008D8014462568A5510434A51AADB2AB42F8D8EE
S214008D90438ADB07FCD54AF20353416170BC8380EB
S214008DA0704700BFF0B41D4A1D4B17889B78DE073E
S214008DB030D4BFB2538ADD07FCD51388194D174946
S214008DC09BB24FF425441380556194804B8ADC0790
S214008DD0FCD51449114B144E4AF215554AF2045468
S214008DE09D805A8AD207FCD502680A6042684A60AB
S214008DF082688A60C268CA6059619C805A8AD207B3
S214008E00FCD51031B14200F11000E9D11F800020DE
S214008E10F0BC70476FF01000FAE700BF004000415A
S214008E2000200041004080000042800010B4016134
S214008E300B88114C114A206023F0C0039B049B0C46
S214008E404FF000540B80C2F88040BFF34F8FBFF343
S214008E506F8F4FF08043C2F88030BFF34F8FBFF361
S214008E606F8F0020C2F88041C2F880311460136012
S214008E705DF8044B704700BF6C36002000E100E050
S214008E804FF40070704700BF0369986880B270475F
S214008E9021F4FF51026921F01F01538ADB07FCD53C
S214008EA04AF2015351619380704700BF10B4034CDF
S214008EB00069A4465DF8044B604700BF658D00005E
S214008EC00369C1F34F319A69012303FA01F1114294
S214008ED00CBF1846002070470A4B186803691A8AA8
S214008EE0D20704D501221A8203684BB118471A8AA2
S214008EF092B22AB140F25E221A824368002BF5D164
S214008F00704700BF6C360020004B1847D98E000013
S214008F1070B5A0F50005A5F58045B5F5007F0BD228
S214008F20124E4518B5421BD85C1E21440844B04278
S214008F300FD96FF00C0070BDA0F18014042C12D86D
S214008F400B4E4518B5420BD85C1E21444418B4425B
S214008F50EFD8294610461A46064B9847002070BDA3
S214008F606FF00D0070BD6FF01A0070BDFF418000FD
S214008F7084008000690A0100F0B5A0F50004A4F59D
S214008F808044B4F5007FADF5017D1CD2164D441823
S214008F90AC4223D85C1E0C440444AC4221D81D4687
S214008FA016460C46114F01464FF400726846B84705
S214008FB02A4631460DEB0400B84768460C4B9847E6
S214008FC00DF5017DF0BDA0F18010052834BF6FF0CF
S214008FD010006FF01A000DF5017DF0BD6FF00D006A
S214008FE0F9E76FF00C00F6E7FF418000690A010020
S214008FF0A58D0000034BDA69012102F47C52DA6188
S2140090001974704700140040034A044B53611369F7
S214009010DB07FCD5704700BF00100040022E100290
S214009020184A23235363D36B13F0060FFBD1164B5A
S21400903093631449022382F83030CB6B9B07FCD431
S2140090402C23104A8B64136D13F0060FFBD10E4BC6
S214009050D3640C49022382F844300B6D9807FCD485
S214009060084B02E01A6C900702D41A6CD207F9D5A6
S214009070044B02E05A6D920702D45A6DD107F9D517
S214009080704700BF001000404000020000B50C4AC8
S214009090937883B0DBB20193019B990707D5094B00
S2140090A01B6823B15068984703B05DF804FB019B2A
S2140090B0DB07F9D5034B5B68002BF5D0004AF1E7D8
S2140090C00000024168F1002070B4104D06460FCD36
S2140090D087B06C460FC495E8030084E803006A4630
S2140090E0002352F8041BB14207D00133062BF8D1F7
S2140090F04FF0FF3007B070BC7047DBB2D81E18BF09
S2140091004FF0FF3007B070BC704700BF041A010074
S214009110F0B50569154E4FF480343C2703E0013C5A
S2140091201BD09B0713D12B7E0B6077740B68AA7D30
S21400913013F080001FFA83FEF1D02E218023A6F8BC
S2140091402CE0328671742B766FF00400F0BD3E235F
S2140091507374A6F82CE03286F0BD21237374A6F84B
S2140091602CE032866FF00400F0BD00BF00FF012047
S214009170F8B52A4B054608460C469847E369284941
S214009180C7B27E0013F0010F06EB070301EBC30323
S214009190DA6917D102F01C00E3699B07FCD123684B
S2140091A09B0709D5236823F002032360E3699B0726
S2140091B0FCD1E3699B07FCD440F001002060E36922
S2140091C09807FCD1E369DB07FCD42260E3699807C3
S2140091D0FCD1F31901EBC3031B6A6360E3695B0709
S2140091E0FCD4F31901EBC303C2F301625B6AE360CC
S2140091F0AA81636A012A94BF0022012223F48043D5
S21400920043EA82326262E06910F00400FBD13E4419
S21400921001EBC6014B8DEB81F8BD00BFC990000085
S214009220041A01000161014B184700BF719100004C
S21400923003691A6822F002021A60DA699207FCD102
S2140092401A6842F001021A60D86910F00100FBD1DA
S214009250704700BF30B403691A6842F002021A6011
S214009260DA699107FCD1042410254FF6FF71D869FE
S21400927010F00400FBD15A8BC2F30112012A0AD067
S2140092800139F4D1013C04D05D83DA695207FCD47D
S214009290EBE76FF0050030BC704700BF03691A6843
S2140092A022F002021A60D86910F00300FBD1704762
S2140092B02DE9F04743880469DE0582B000F1278275
S2140092C04B889BB243F480734B8082460F4607C997
S2140092D08AE80700636843F480736360E3695D07A8
S2140092E0FCD4DAF804302268012B636800F07A8137
S2140092F023F480236360E3695B07FCD4BAF800308C
S2140093005A0552D5BAF80220D60706D5BAF8022072
S21400931092B242F48062AAF8022040F2FE7202EA9A
S2140093204302E3695D07FCD4636A03F4804343F4B5
S214009330004313436362E3695807FCD401A950460F
S214009340B04EB14DB0473B236B742168019AE36978
S2140093505B07FCD4638B12F0010F9BB238D09A07E0
S21400936061D501222276BAF8022092B242F48052E7
S214009370AAF80220BAF8022022F48072120413F02F
S214009380010F4FEA1242AAF8022014BF6FF0040041
S2140093906FF00300BAF8023023F480731B041B0C32
S2140093A0AAF8023002B0BDE8F087BAF802105A00F8
S2140093B0D2B201F001031A43E3695907FCD4636A89
S2140093C003F480431A436262E3695A07FCD4B5E7A4
S2140093D0920742D5DAF80420002A00F0AA8158073E
S2140093E000F1A781013ACAF80420C1F3C061002A3F
S2140093F040F01B8149B9636843F480236360E369E6
S2140094005807FCD4002A40F01281BAF802301B0438
S21400941000F18081BAF8023023F480731B041B0C21
S214009420AAF8023003E1580700F18881BAF8023042
S2140094305B0500F10981DAF80420002A40F02C814F
S214009440BAF802301A0400F15A81BAF8023023F44E
S21400945080731B041B0CAAF8023000234FF03A0856
S2140094604FF00209BAF80220D2052ED501A95046BF
S214009470B04785F81180002840F0A880019B21683D
S214009480E2695207FCD4628BD80792B221D59007C6
S21400949054D501232376BAF802309BB243F48053A6
S2140094A0AAF80230BAF8023023F480731B041B0CAF
S2140094B0AAF8023012F0010FBAF8022014BF6FF0BB
S2140094C004036FF00303D205D0D4184602B0BDE8FB
S2140094D0F08713F00203C5D0DAF80430002B00F052
S2140094E0CE80500700F1CB805A1ECAF80420C1F384
S2140094F0C061002A45D139B9636843F480236360AC
S214009500E3695B07FCD45AB9BAF802301A047DD472
S214009510BAF8023023F480731B041B0CAAF802303E
S214009520DAF80820531CCAF80830E36913F004037D
S214009530FBD1A16A117084F8189093E7510700F1E7
S214009540B980BAF80230580520D5BAF80030DB09E1
S21400955003F00602E3695907FCD4636A03F4804308
S21400956043F0F10313436362E36913F00403FBD192
S214009570BAF8022022F480621204120CAAF8022022
S21400958070E7012ACCD10029CAD0B5E7DAF8042062
S2140095906AB9BAF802301A0476D4BAF8023023F45C
S2140095A080731B041B0CAAF8023000235AE7DAF873
S2140095B008100B78A362E36913F00403FBD10131B2
S2140095C0013ACAF80810CAF804204BE77B881D0445
S2140095D07FF5E0AE636843F440336360E3695907A0
S2140095E0FCD4D7E610017FF583AE43F48023636096
S2140095F0E3695907FCD4BAF800305A053FF582AE45
S214009600D3E600BF1191000000FF0120636823F439
S21400961080736360E3695807FCD4636843F440339F
S2140096206360E3695907FCD472E7012A5CD0DAF874
S2140096300820531CCAF80830E3695B07FCD4A36A09
S21400964013700223237608E7BAF80030DB0903F02C
S2140096500602E3695807FCD4636A03F4804343F0C8
S214009660F10313436362E3695907FCD4BAF8023086
S21400967023F480631B041B0CAAF80230EDE684F882
S21400968018906FF00103EDE6636843F440336360BF
S214009690E3695B07FCD480E7DAF808100B78A3626E
S2140096A0E3695807FCD40131013ACAF80810CAF831
S2140096B00420D2E6DAF80430002B06DDBAF80230D1
S2140096C09BB243F48053AAF80230BAF802301A0468
S2140096D00DD4BAF8023023F480731B041B0CAAF8CE
S2140096E002306FF00103BDE60029A0D083E6636870
S2140096F043F440336360E3695B07FCD4E9E76368DF
S21400970043F440336360E3695B07FCD49DE66FF087
S214009710050047E6636823F480736360E3695907CE
S214009720FCD4636843F440336360E3695A07FCD4AF
S21400973070E6022323766FF001002BE6DAF8043099
S214009740002B06DDBAF802309BB243F48053AAF829
S2140097500230BAF8023019040AD4BAF8023023F4F8
S21400976080731B041B0CAAF802306FF0010011E690
S214009770636843F440336360E3695A07FCD4ECE75C
S2140097800B7813F002030FD10A7802F0BF020A70BA
S2140097900A7910B402F0FE0220240A7104710160F6
S2140097A05DF8044B184670476FF010031846704774
S2140097B00268137843F0020313700020704700BF5E
S2140097C00268937ADB07FCD5106A704703689A68CC
S2140097D012F00E0FFBD11A78D20915D19A6812F042
S2140097E00E0FFBD11A7892070ED41A7802F0FB02FD
S2140097F01A70986810F00E00FBD15A7802F0F0024A
S21400980042F007025A7070476FF01000704700BFB2
S2140098100368986810F00E0FFBD11878C0094CD179
S214009820986810F00E0FFBD11878C0F3400000289F
S21400983043D1F0B4A2FB01452E46074656EA07027E
S21400984010D1B4F57A3F41D010D9B4F5FA1F3BD009
S2140098502BD9B4F5FA0F24D0B4F57A0F38D0B4F576
S2140098607A1F20D06FF00C00F0BC7047B4F5FA4FAA
S21400987026D00ED8B4F5FA5F03D0B4F57A5FF1D1EE
S21400988001205A7802F0F00210435870F0BC002015
S2140098907047B4F57A4F15D0B4F5FA3FE2D10420FC
S2140098A0EFE70A20EDE70920EBE7B4F5FA2F11D031
S2140098B0B4F57A2FD6D10720E3E76FF01000704793
S2140098C00220DEE70320DCE70820DAE70520D8E7F9
