S0100000495A492D4343342B2E7372656316
S214004000E8080120516400001D64000029640000D7
S2140040102D640000396400004564000000000000C4
S21400402000000000000000000000000041E1000069
S2140040300564000000000000D1E1000035E2000049
S214004040F9630000F9630000F9630000F9630000FB
S214004050F9630000F9630000F9630000F9630000EB
S214004060F9630000F9630000F9630000F9630000DB
S214004070F9630000F9630000F9630000F9630000CB
S214004080F9630000F9630000F9630000F9630000BB
S214004090F9630000F9630000F9630000F9630000AB
S2140040A0F9630000F9630000F9630000F96300009B
S2140040B01164000005920000D59100003543000011
S2140040C0F9630000F9630000F9630000F96300007B
S2140040D01164000011640000116400001164000007
S2140040E011640000116400000000000000000000E1
S2140040F00000000089930000F9630000F9630000E7
S214004100F9630000F9630000555D0000AD5D000036
S214004110CD5D0000ED5D00001D5E0000755E0000D8
S214004120B55E0000D55E0000F9630000F96300008C
S214004130F9630000F9630000F9630000F96300000A
S214004140F9630000F9630000F9630000F9630000FA
S214004150F9630000F96300000000000000000000A2
S214004160000000000000000000000000000000004A
S2140041700000000000000000558F0000F9630000FA
S214004180F9630000F9630000F9630000F9630000BA
S2140041900000000065720000056400000564000071
S2140041A00564000005640000056400000564000066
S2140041B055710000056400000564000005640000F9
S2140041C005640000DD710000056400000564000061
S2140041D005640000CD700000F9630000F96300007C
S2140041E0F9630000F1DE000025DF0000F96300003F
S2140041F0F9630000F9630000F963000021DB0000AA
S214004200F96300000000000000000000F9630000F1
S214004210F9630000F9630000F963000045D200006E
S214004220F963000019D10000F9630000F96300008B
S214004230F9630000F9630000F9630000F963000009
S214004240F9630000F9630000F9630000F9630000F9
S214004250F9630000F9630000F9630000F9630000E9
S2140042600000000010B5054C237833B9044B13B199
S2140042700448AFF300800123237010BD702B00208C
S21400428000000000000002000C4B43B10C480D4932
S21400429010B5AFF300800C48036823B910BD0A4878
S2140042A0036833B97047094B002BF7D0BDE81040C0
S2140042B01847064B002BF5D0184700BF000000003B
S2140042C000000200742B0020000002000000000026
S2140042D010B41349134A0B6943F400730B61138837
S2140042E043F0010313801388DB07FCD40E4B0F4901
S2140042F051630F4C946340F602704FF000411080FB
S214004300C3F88010BFF34F8FBFF36F8FA022C3F8A0
S214004310801183F81F235DF8044B1960704700BFB7
S2140043200008004000A0004100E100E080DB002023
S21400433000E4002010B5244B93F84E20910709D5D1
S2140043400221224A83F84E101368214A0021116088
S21400435003B198471C4B93F84E20520744BF0422E3
S21400436083F84E20184B93F84E20D40706D5174AEC
S214004370D268012183F84E1002B19047124B93F891
S2140043805E20900709D5114A114952680224002080
S21400439083F85E40486002B190470B4B93F85E206E
S2140043A0510744BF042283F85E20074B93F85E2033
S2140043B0D20708D5054A1269012183F85E1012B1AA
S2140043C0BDE81040104710BD00A000418C2B002017
S2140043D080DD0020F0B4041D0E4E0F4F24011202A3
S2140043E0355945F0010535510C4D47F8203002F49B
S2140043F0FE4207EB800745F8201006EB001342F458
S21400440000120498F8600721325183F84D10F0BC72
S214004410704700BF00A000418C2B002000E6002063
S21400442002281BD8B2F5007F18D82DE9F041234C9E
S2140044304FF0004584B0C4F88050BFF34F8FBFF3F1
S2140044406F8FDFF888E05EF820704FB100201B4BBE
S2140044504FF000421A6004B0BDE8F08100207047BB
S214004460174BDFF86C80044603EB40231846012602
S21400447015464EF82460C04740F20141114AADF897
S21400448000100346ADF8025052F8242002922B4446
S2140044900397019304AB13E90F000B4D05EB0415CE
S2140044A085E80F00240104F1824404F520443046D8
S2140044B0236C43F002032364C9E700BF00E100E079
S2140044C000DE002000E6002080DB002080DD0020EB
S2140044D0B7010100F8B52B4B2B4F2C4E2C4C9847B0
S2140044E02C4B2D482D4A04254FF040419D60986284
S2140044F0996293F8421001F0FB0183F8421093F89A
S2140045004200202100F0FE0083F84200C3F8145158
S21400451059609F629E62596093F84500284383F86D
S2140045204500996193F8451001F0FE0183F84510A7
S2140045302546402335F8020B13700233C0F30321DF
S214004540DBB261F07F01482B9070517002F10302DC
S214004550F0D10C221149124B60209847002809DB45
S214004560012502200F4B257298470F4B00221A7028
S2140045702846F8BD0C4A0D4B0321022011709847BF
S2140045800020F8BD9D5A000020000240000002C036
S214004590A42B0020008000410400004080E600209C
S2140045A0915B000091D5000091E6002081D50000C7
S2140045B0014B187A704700BFA42B0020184B1A7ABC
S2140045C010B552B3044600686168164A03C3A31EBA
S2140045D006345988C1F30321117033F8021F517055
S2140045E0A34202F10202F4D10F4A0E490F4B0420F7
S2140045F0C2F81401082260209847044630B10C4ADD
S21400460013780133DBB2022B137001D8204610BD9D
S2140046100220084B9847204610BD6FF06304F5E76C
S214004620A42B002080E6002000800041915B000063
S21400463091E6002081D50000FF2901DC012801D980
S2140046400020704710B40A4C0302E0182344405C74
S214004650084C5A549042084818BF42544FF0010381
S21400466008BF405C237018BF10465DF8044B7047C7
S21400467094E70020B02B002094E60020FF2916DCEB
S21400468070B40F4B0F4C585C904200D062545A5492
S21400469058180D4D90F80001012690422E7008D053
S2140046A062541944104681F8002170BC70470020FF
S2140046B07047605C194481F8002170BC704700BFE9
S2140046C094E7002094E60020B02B0020F0B503B35A
S2140046D0114E124DDFF848E001EB00240B44344441
S2140046E00127FF2901DC012809D90131994204F18B
S2140046F0010402F10102F4D101232B70F0BD1678FB
S21400470094F800C02F70B44518BF01F80E602670EC
S214004710EBE7024DF0E700BF94E70020B02B002047
S21400472094E60020FF28DABF014B185C0020704793
S21400473094E6002038B5674C237813B9AB2800F010
S214004740978023782BB1BA284FF0000300F08A80B8
S21400475023702379002B7BD063889BB2B3F5037F4D
S21400476076D2A37962795C494FF40375022A05FB79
S214004770031300F089806279012A00F0A480627930
S214004780002A7CD000226271628892B2511C89B2E3
S2140047906180618898548BB20E2B00F08580638808
S2140047A09BB20D2B5DD9A27963884FF4037101FB90
S2140047B002429BB2528A0D3BC2F30B02934250DD7B
S2140047C00023237063802371A37904EB8303D3F85B
S2140047D0383823B194F84838013384F84838B4F8A8
S2140047E04A389BB243B1B4F84C3801339BB200222E
S2140047F0A4F84C38A4F84A28A579384B9847EDB267
S214004800A37904EB850504EB8303C5F83808D3F8D1
S21400481038383BB9A37904EB8303D3F83828013240
S214004820C3F83828A379D4F850080133DBB2032B39
S214004830A37184BF0023A3710021294B9847294BFD
S2140048404FF080521A60BFF34F8FBFF36F8F38BDA3
S214004850237833B9B4F84A3801339BB2A4F84A38FF
S21400486038BD38BD0122638023702271637138BD64
S214004870012323702379002B7FF46EAFE8E7AC2882
S21400488080D1012262717FE758B96188628813FA85
S21400489081F113FA82F3BA20AB2201F8010C03F877
S2140048A0022C0023637138BDA3794FF4037202FB18
S2140048B003435B8AC3F30B03B3F5007F7FF66FAF4A
S2140048C00023237138BDDC287FF459AF02226271C1
S2140048D05AE700BFB82B0020C02B002041F2000092
S2140048E025EA000004ED00E02DE9F043ADF5057D76
S2140048F01C46BDF80E30384E019064F30B031D0ABB
S21400490001203768029760F30715ADF80E30ADF852
S2140049100C108DF80F50114604A822462F4F8C9D80
S214004920B84704F10C0189B200222D4B01A8984724
S21400493004F1100601ABC0431C4480B2B6B2010AB3
S214004940AB22BA23022E607321732A706B7040DD8F
S2140049504FF0000901AC023E26444946C8460220F4
S2140049604FF0AC0C4FF0DC0E102712E0A3F1AC01B8
S214004970B1FA81F14909B9F1000F01D0BA2B16D06E
S214004980A3F1AB09B9FA89F9A6424FEA59191046BC
S2140049901BD014F8013B2B54421C92B20029E5D0E0
S2140049A0DC2BE3D10230AF54002182B2E8E7AB182B
S2140049B002304FF00009A64203F802CC03F801ECDF
S2140049C080B205F802804946E3D10DF5057DBDE8C5
S2140049D0F0830220F9E700BF20408000B701010005
S2140049E0DDFD000010B5114CD4F85018A4F854089A
S2140049F082B039B10E4B0F489847D4F8583843B1B7
S214004A0002B010BD032201200B4B9847C4F8500893
S214004A10F0E70A4A019205220092094909480A4C21
S214004A204FF48072A0470128EAD0FEE7B82B00209A
S214004A308D540000354700001DE7000010340020AC
S214004A40E40A0100A14B00007DEF0000014BC3F813
S214004A505C087047B82B0020014BC3F8600870470D
S214004A60B82B0020014B1878704700BF00220020AA
S214004A7070B505686B1C82B004461FD0414B984742
S214004A8085421BD0637B404D03F00F020121042AB0
S214004A900BD13E4B62681B689A42637B16BF0222AC
S214004AA06FF3030362F303036373D5F85C38002BDC
S214004AB03FD0204602B0BDE870401847637B03F045
S214004AC00D01012937D021894FF6FF70814203F08E
S214004AD00F0243D02C4DB5F8543823F01F031B04A7
S214004AE047F6E0701B0C0140994226D00121207B3E
S214004AF095F8643883422BD9254E7378002B30D135
S214004B00B5F86628642303FB02F3C3F30723222BBE
S214004B10337029D91F4B019105209847637B207B72
S214004B20019903F00F020123A5F8663885F864089A
S214004B30ADE702B070BD144DB7E7144B61681B6853
S214004B4099421CD00029D2D0111F18BF0121CEE7F0
S214004B50B5F866380133A5F86638E7E700210A4D50
S214004B60C5E700237370DEE70B4B0191984744F6C8
S214004B70206398420199CDD90520084BCDE7002146
S214004B80B5E700BF2D9D0000B82B00202040800018
S214004B9000220020E5D5000035F20000D5D5000043
S214004BA02DE9F84F314DDFF8D8A0D5F85008304B36
S214004BB04FF47A71984788B195F868480426E4B2AD
S214004BC04FF00009A700EB19D3F83838BBB9013409
S214004BD0E4B2042C28BF0024013EF3D195F84838EF
S214004BE04A228AF8112013B1002385F84838D5F8F0
S214004BF0603803B198474B238AF81130D5E74FF455
S214004C00037303FB04F805EB080B1A4BBBF81210F2
S214004C109844C1F30B01184B0E31404600229847CA
S214004C204FF6FF7398420BF1100B0FD085F86848CB
S214004C3095F868380133DBB22F44032B85F86838C3
S214004C40C7F8389888BF85F86898C0E7BBF8023080
S214004C50C3F30B03032BE9D99BF8033013F0F00FD3
S214004C60E4D14046054B9847E0E700BFB82B00204C
S214004C7081EC0000C02B0020DDFD0000714A000022
S214004C8000FF012010B5B3F5007F82B00AD90024DA
S214004C902146074B07489847001BB0FA80F04009AA
S214004CA002B010BD034C0094034CA0470446EFE747
S214004CB0BD54000024340020E9480000104BB3F82F
S214004CC04A2892B242B1B3F84C28013292B200217F
S214004CD0A3F84C28A3F84A1893F88C2A0132D2B2CB
S214004CE0092A83F88C2A09D9B3F84C28002192B2F5
S214004CF0A3F88E2A83F88C1AA3F84C18704700BFC6
S214004D00B82B0020024BB3F88E0A80B2704700BF63
S214004D10B82B002070B444789DF90C5082700126A0
S214004D2063F3061466F303046FF3C714017044704C
S214004D30C57070BC0420704710B44378017002241C
S214004D4064F30613012161F303030021C2F3072471
S214004D5061F3C7130271447143708170C1705DF8CE
S214004D60044B0620704700BF43780170012262F3AF
S214004D70061362F303036FF3C713002143708270B8
S214004D80C1700420704700BF30B44378017001241E
S214004D9064F30613032503F07F03202465F303035F
S214004DA0002102718470C170437030BC05207047CA
S214004DB010B443780170012464F3061364F303030C
S214004DC06FF3C71320240021027184704370C170F2
S214004DD05DF8044B05207047F0B444780170012656
S214004DE004F08F0166F303019DF810509DF81440FF
S214004DF08280202700269DF8182083716FF3C71144
S214004E0087704170C670C57104724272F0BC0A2089
S214004E10704700BF43780170012262F3061362F305
S214004E20030322216FF3C713002281704370C27000
S214004E300420704710B443780170012262F3061311
S214004E40032403F07F0364F303032221002281700E
S214004E50C27043705DF8044B0420704770B5447808
S214004E600170012504F08F0465F3030422261D4615
S214004E706FF3C7140023114686704470C3702A4629
S214004E80024B04309847281D70BD00BFB7010100D3
S214004E9043780170012262F3061362F303032121B3
S214004EA06FF3C713002281704370C27004207047EE
S214004EB010B443780170012262F30613032403F052
S214004EC07F0364F30303212100228170C2704370C4
S214004ED05DF8044B0420704770B5447801700125D6
S214004EE004F08F0465F3030421261D466FF3C714F0
S214004EF00023114686704470C3702A46024B043065
S214004F009847281D70BD00BFB70101002DE9F04786
S214004F1044780170012504F08F0165F303019DF8C4
S214004F203CE0BDF82090BDF82C809DF830C09DF880
S214004F3034709DF8386042256FF3C71100248570E1
S214004F404170C470BDF824509DF840401199BEF1E0
S214004F50000F07D090F801E04FF0020A6AF3030E44
S214004F6080F801E083600A9B4260A0F80C90036121
S214004F70A0F8148080F816C0C7750676C5814476FA
S214004F80C0F81A101E20BDE8F08700BF70B4447841
S214004F900170012565F3061465F303049DF80C60A3
S214004FA0027102256FF3C7140021437185704470A7
S214004FB0C170867170BC0520704700BF70B544781C
S214004FC09DF81450017004F00F0162F303011026DF
S214004FD0002483808670C47041702A460499024B70
S214004FE006309847A81D70BDB701010070B444781C
S214004FF00170022565F3061404F07F0400211226D2
S21400500065F303044371027186704470C170817148
S214005010C17170BC07207047F0B444780170022557
S21400502065F3061404F07F04C3F30727082665F328
S21400503003040021037247728670C1704470426098
S214005040F0BC0A20704700BF43780170022262F36A
S2140050500613012262F3030311216FF3C713002224
S21400506081704370C2700420704700BF437801709F
S214005070022262F3061303F07F0362F30303112197
S214005080002281704370C27002710520704700BF15
S21400509043780170012262F3061362F30303802152
S2140050A06FF3C713002281704370C27004207047EC
S2140050B010B443780170012262F30613032403F050
S2140050C07F0364F30303802100228170C270437063
S2140050D05DF8044B0420704743780170012262F3A8
S2140050E0061362F3030381216FF3C7130022817056
S2140050F04370C2700420704710B4437801700122D8
S21400510062F30613032403F07F0364F30303812191
S21400511000228170C27043705DF8044B0420704713
S21400512010B443780170022464F30613012161F37E
S214005130030382246FF3C713002142608470437018
S214005140C1705DF8044B0820704700BF43780170BB
S214005150012262F3061362F303036FF3C713002101
S21400516043708270C1700420704700BF70B54478E9
S21400517001701E2B4FF0010604F08F0428BF1E237B
S21400518066F303041D466FF3C714002311464470EC
S2140051908670C3702A46024B04309847281D70BD9F
S2140051A0B7010100F0B51A4C2368646823F4FF4386
S2140051B0490223F07F0301F4C06143EA400083B054
S2140051C008430AB140F480504FEA104C4FEA106E84
S2140051D0010A270A260C250E8DF800008DF80440DB
S2140051E08DF8011008236A4600218DF802C08DF85C
S2140051F003E0084C8DF805708DF806608DF80750B2
S2140052000348A047B0FA80F0400903B0F0BD00BFE5
S214005210004080007592000030B4294B9B7813F054
S214005220010F284B1C685B6822D0E50736D501F0D5
S2140052300301254B1C696FF341041C611C6960F374
S21400524017441C61186961F383001861002A1A6903
S21400525014BF0221002161F30B221A611A6942F081
S21400526002021A61DA68D207FCD5002030BC70470B
S214005270E30702D5154B30BC1847C4F347039842E2
S214005280F8D1C4F3412301F00305AB42F2D114F484
S214005290F04418BF01249442E7D0EBE7C4F3470379
S2140052A0984201F00301C4D1C4F341238B42C0D11C
S2140052B014F4F04418BF01249442D6D0B9E700BFD6
S2140052C0002000410040800000180040A55100006A
S2140052D0014B1868704700BF4C360020024A13681E
S2140052E001331360704700BF4C36002010B586B0FF
S2140052F0142301AA00210B480B4CA0479DF8083048
S214005300B12B0BD006AAB12302F8103D04210123CD
S214005310064C0448A047012006B010BD002006B089
S21400532010BD00BF004080000D9200007592000086
S2140053308318B3F5805F0CD810B5074CE36A5B079B
S214005340FCD40B4600F188411846044B98470120D0
S21400535010BD0020704700BF00400041B7010100AB
S2140053608318B3F5805F16D810B50C4CE36A5B075C
S214005370FCD400F188400A4B9847084AD36A59077C
S214005380FCD4D36A9B0704D54AF23353938001209A
S21400539010BD012010BD0020704700BF0040004136
S2140053A0B7010100024A136801331360704700BF5B
S2140053B0503600200C4B1A791AB99B6803B118476F
S2140053C07047014610B5186919730124074A5C73C3
S2140053D000219047064B4FF080521A60BFF34F8F64
S2140053E0BFF36F8F10BD00BF5036002025EA0000C7
S2140053F004ED00E070B51F4C237D82B02BB1657DB7
S214005400EDB2012D03D00023237502B070BD2379C1
S21400541033B9A37DCBB9184B4FF48032C3F898202C
S2140054200021A069154B9847154B4FF080521A6023
S214005430BFF34F8FBFF36F8F2379002BE3D10E4B53
S2140054404FF48032C3F89420DDE701A80D4B98474F
S214005450094B0D49D3F88000D3F8A020D3F890600C
S21400546056400640564001A88847B303D3D5E57595
S214005470D6E700BF503600200080004125EA000035
S21400548004ED00E0E58C0000F58C000010B4044C40
S214005490044A054B0146A16004485DF8044B1847D2
S2140054A050360020A5530000FD5B0000F5530000B9
S2140054B0014B9875704700BF50360020B1F5806FDD
S2140054C001D3002070472DE9F04F284C284B227D51
S2140054D00646012283B00D46A06922750021984732
S2140054E030462946234B9847667DF6B2012E06D0F5
S2140054F00023E3751846237503B0BDE8F08F14212A
S214005500A0691D4B98470028F2D0E37D43B3DFF82F
S2140055107090DFF87080194FDFF86CA001A8C847BC
S214005520D7F88010D7F8A020D7F8903082EA030B7F
S2140055300BEA010B8BEA020B01A8C0471BF4003FE5
S214005540304606F1010602D0D047052EE6D14FF4CC
S2140055508033C7F89830094B4FF48032C3F8942054
S214005560002323752846E375C6E700BF50360020A3
S21400557089E600000D5E000081EC0000008000411E
S214005580E58C0000F58C000081F400002DE9F04168
S21400559082B0104EDFF848800F4B02A801254FF46A
S2140055A08017F5227761294600F8012D88F8045007
S2140055B0984700220446094B88F804202846984756
S2140055C0E0B2401BB0FA80F04009B76102B0BDE817
S2140055D0F08100BF00800041BD54000081F400004F
S2140055E05036002030B583B0104B8DF805004FF4D0
S2140055F08012F5208DF806108DF804005A6100BF61
S21400560000BF0B4D0B4B0122032101A82A719847BE
S214005610094B044602209847E0B2A0F10300B0FA16
S21400562080F0002340092B7103B030BD008000419C
S21400563050360020BD54000081F4000010B582B042
S214005640194B8DF805004FF48012F5208DF80610E2
S2140056508DF804005A6100BF00BF144C144B0122A1
S214005660032101A8227198470023C0B22371114973
S2140056704FF0805201E07D2B0FD000BF01339BB26C
S214005680FA2BF8D1A0F10300074BB0FA80F04FF4E4
S214005690801240099A6102B010BD0A60BFF34F8FB6
S2140056A0BFF36F8FE9E700BF00800041503600204F
S2140056B0BD54000004ED00E070B582B0154C164AEB
S2140056C08DF805000023FD264FF4801063738DF8D7
S2140056D004600D46506100BF00BF012219462069D4
S2140056E00E4B2271984702210D4B01A8984720695E
S2140056F00C4B0A21984728B1637B03F0FF000BB1DF
S214005700237B2B70044B00214FF4801221719A6189
S21400571002B070BD503600200080004189E60000CF
S214005720BD54000081EC000030B5114B83B0044638
S2140057300D469847C0B1022C12D020460DF1070145
S2140057400C4B984718B96FF0010003B030BD9DF8B8
S2140057500730AB420CBF00206FF0020003B030BD34
S2140057602046054B9847E8E74FF0FF30EDE700BFCF
S214005770E5550000B956000081F4000010B582B06F
S21400578004460DF107010220054B984728B19DF805
S2140057900700001BB0FA80F0400902B010BD00BF41
S2140057A0B9560000024BA3FB0030C0080530704716
S2140057B0CDCCCCCC044BA3FB0023DB0803EB83034C
S2140057C0A0EB4300C0B27047CDCCCCCC10B582B0B5
S2140057D004460DF107010020054B984728B19DF8B7
S2140057E00700001BB0FA80F0400902B010BD00BFF1
S2140057F0B956000000F00302044B054853F8223067
S21400580080FB0320DB17C3EBA0107047F00A0100F3
S214005810D34D6210704700BF2DE9F04106460D4695
S21400582003201C210C4C1746A047002812DB05F06D
S214005830030141F060010020A04700280ADB39463A
S2140058400120A047002805DB314623460220BDE89C
S214005850F0411847BDE8F081295700002DE9F04FC8
S214005860444E454DDFF84091444CDFF8408185B00A
S214005870002373750390019102923375404A4149A3
S2140058804148424B98474FF0030A4FF480124FF4BA
S214005890803B3F4BA261C4F894B0C4F884B0C4F80F
S2140058A0A880C4F8A8304FF40033C4F88430394BCD
S2140058B0C4F8A8800220C4F8A8304FF00067A847B4
S2140058C004206761A8470220A761A847324B984783
S2140058D00120A84701227275727D42BB019B03F02E
S2140058E0030141F060010020C847071E02994FF0EF
S2140058F0010033DBC847071E03994FF002002DDB7B
S214005900C847071E2ADB254B022098471B4B4FF43F
S21400591080129A61B1681B4B994204D019B1184A9B
S21400592019481A4B9847384605B0BDE8F08F1C2139
S2140059300320C8474FF400334FF08041184AC4F89C
S21400594088B0071EC4F8A810C4F8A820C4F884308D
S214005950104BC4F8A880C4F8A830BFDA0220114B58
S21400596098474FF48013A3610220A847BAF1010AB2
S2140059708BD1CFE75036002081F400000080004134
S214005980A5530000B5530000F5530000FD5B000072
S214005990010002C0020002C08D55000091D5000033
S2140059A0010000C081D50000295700000000024019
S2140059B010B5154B1B7D0446D3B12046134B144C33
S2140059C09847144B4FF480125A614FF080500023D2
S2140059D040F2771100BF7D2B9AB20ED0FA2A0CD077
S2140059E001338B42F6D10B4B4FF480129A6110BDF7
S2140059F09F21094B03209847DFE72060BFF34F8FB6
S214005A00BFF36F8FECE700BF5036002081F4000034
S214005A1004ED00E0008000413D56000038B503224A
S214005A200021054D054C0120A847032220610021D6
S214005A300120A847A06138BD1DE7000050360020B1
S214005A40F0B589B008AC174644F8200D094D01A8FA
S214005A500B221E46A8470E998DF80F700C2205A83B
S214005A600496A847202322461946034C0348A0471D
S214005A7009B0F0BD350201007592000000408000BC
S214005A8010B4044C20230246A446194602485DF88A
S214005A90044B6047759200000040800070B52F4CA4
S214005AA06378012222702BB12D4B2E4898472D4843
S214005AB02D4B98472D4B2E4A2E492F4D29484026D0
S214005AC0C3F8E060936943F480639361A8472B4B67
S214005AD024482B4D98472B4B2B482C494FF48002DB
S214005AE05A60986299625A6093F8561041F0040121
S214005AF083F856109A6193F8562002F0FE0242F0A0
S214005B00010283F8562093F83B2002F0F0024FF48F
S214005B10000142F0020283F83B20596098629D62C1
S214005B20596093F8572042F0040283F85720996191
S214005B3093F8572002F0FE0242F0010283F8572045
S214005B4093F83B2002F00F0242F0200283F83B203D
S214005B500021012060702170618070BD72360020C7
S214005B60918E000094E90020758E0000001C004015
S214005B700008004000400141558E0000898E00005C
S214005B80800002C00080004100000240400002C0C9
S214005B90F0B50B4C0B4B83B007460D46204601A9CB
S214005BA016469847394620464FF40062064B9847FB
S214005BB0F2B229462046054B984703B0F0BD00BF19
S214005BC094E90020CD8E0000998E0000A98E00007A
S214005BD010B5054C6388022B01D8012010BD034B7D
S214005BE098470020608010BD723600209D5A000045
S214005BF0014B02229A75704700340040F0B5494DBB
S214005C00494C28606069494E6960494B402140F420
S214005C1000506061C6F8A0101968AA6041F0010142
S214005C2083B01960D86910F00100FBD1414C424A9C
S214005C301A604FF440374DF6AD0684214FF48022AB
S214005C405F609E819975C4F88420BFF34F8FBFF3C1
S214005C506F8FA026A968394BC4F88421384F84F882
S214005C6032636260009107223649B8474FF400233A
S214005C70C4F88430BFF34F8FBFF36F8F6A68C4F8E1
S214005C80843184F8336363606AB14FF48013C4F8D8
S214005C908430BFF34F8FBFF36F8F8022C4F88431F8
S214005CA084F834236360AB6873B1224B4FF4001260
S214005CB0C3F88420BFF34F8FBFF36F8FC021C3F8A4
S214005CC0842183F835135A6019481F4D02681F4C0B
S214005CD01F4B002142F0020202602980218093F8C7
S214005CE0502002F0FE0242F0010283F8502093F8A2
S214005CF0382002F0F00242F0020283F8382093F8CF
S214005D00512002F0FE0242F0010283F8512093F87F
S214005D10382002F00F0242F0200283F8382003B049
S214005D20F0BD00BF7836002000080040001C004090
S214005D300034004000E100E004001040F15B000089
S214005D40D543000028340040B6ED0020B4ED002016
S214005D5000800041114A138801339BB2B3F5806F6F
S214005D60138024BF002313800D4B1988138889B233
S214005D709BB299420AD013880A490B4A9BB2CB5C65
S214005D80DBB29362084B01221A767047064B01225B
S214005D901A75054B01221A76704700BFB6ED002033
S214005DA0B4ED0020B4E900200034004008B5054BEF
S214005DB01B681BB19847044B02221A75024B02223D
S214005DC01A7608BD783600200034004008B5054B2A
S214005DD05B681BB1044A906AC0B29847024B042223
S214005DE01A7608BD783600200034004008B5054B0A
S214005DF09B6803B19847044B0621802259831A7684
S214005E0008BD00BF78360020003400400A46024B2A
S214005E1001460020184700BF21440000114A13889D
S214005E2001339BB2B3F5827F138024BF0023138017
S214005E300D4B1988138889B29BB299420AD01388F1
S214005E400A490B4A9BB2CB5CDBB29362084B012239
S214005E501A767047064B01221A75054B01221A76F0
S214005E60704700BFB8ED0020BAED0020BCED002062
S214005E700020014108B50B4B196839B10A4A0B4B93
S214005E8012881B8892B29BB29A4203D0084B022219
S214005E901A7608BD8847064B02221A75044B022262
S214005EA01A7608BD84360020BAED0020B8ED002032
S214005EB00020014108B5054B5B681BB1044A906A97
S214005EC0C0B29847024B04221A7608BD84360020DA
S214005ED00020014108B5054B9B6803B19847044B69
S214005EE00621802259831A7608BD00BF843600201A
S214005EF0002001412DE9F041104C114D00230121F5
S214005F004FF6FF72A160A3614FF4FE716361E36018
S214005F102361201D6360A8472146206080224FF43D
S214005F200060084B984708B9BDE8F08121468022FA
S214005F304FF40060044BBDE8F0411847C8F000205D
S214005F40DDFD000061530000315300002DE9F047ED
S214005F50DFF8F090374E384B0025294620220724DC
S214005F6009F11000C9F80840C9F8045098475022B3
S214005F70032089F834207778F17889F835001222E2
S214005F80F02089F83D204FF0FF3289F83650A9F806
S214005F903A5089F83E50A9F8385089F8FE5189F8E9
S214005FA0FF51C9F8405089F83F0089F83C10C9F8FD
S214005FB04450C9F84850C9F84C50C9F85050C9F870
S214005FC05450C9F8302089F83720B7B1DFF8808000
S214005FD006F5DC76AA4616F8044C0AEB05004030B7
S214005FE0224631464844013C0135C0475444BD4230
S214005FF05FFA84FA06F12006EDD14FF6FF724FF4F1
S214006000FE710E4B0E48CD2489F8FD4198474FF49B
S2140060100072C9F800000B490B4B0020984708B9DE
S214006020BDE8F0874FF400720649084B0020BDE833
S214006030F047184720F30020CD010100DDFD0000E9
S214006040CCEE0020C8EE0020615300003153000063
S214006050B701010010B5044C044B21464FF4007202
S21400606000209847204610BDC8EE0020315300009F
S21400607000487047C8EE002010B50D4C0D4B9847F1
S21400608020464FF6FF724FF4FE710B4B98472146A1
S2140060904FF4007241F8040D084B00209847044660
S2140060A018B1074B9847074B9847204610BD00BFCE
S2140060B0CCEE002035F20000DDFD0000615300004C
S2140060C00DB400008177000010B5094C094B9847C5
S2140060D020464FF6FF727C21074B9847211F44F855
S2140060E0040C80224FF40060044BBDE810401847B3
S2140060F0CCF0002035F20000DDFD0000615300000A
S2140061002DE9F0411B4C01220023A260636008B118
S2140061102361E360184D194E00236B604DF2D86E74
S21400612023624FF6FF72AB60EB607821A5F11C008E
S21400613064272383E382A382A383A4F81AE0A777C5
S214006140B047A5F12001206080224FF440600C4B40
S214006150984708B9BDE8F081A5F120018022094BD7
S2140061604FF440609847084B9847084BBDE8F0410D
S214006170184700BF80FE0120A0FE0120DDFD0000C4
S21400618061530000315300000DB400008177000019
S2140061902DE9F04F254D95F8019081B0B9F1000F2B
S2140061A03BD04FF0000ADFF8908005F5DC755746C7
S2140061B001261CE092F84020B3466988504491427C
S2140061C006F1010600F1400002D8A988914206D2E5
S2140061D0404422462946164B98470137FFB2013CF9
S2140061E05444D9451FFA84FA05F1200514DD15F844
S2140061F0044C08EB0A02701E022C0244DAD108EBAB
S2140062000A029119024491F8401092F8402002EBDD
S214006210012292B2B346D0E717B901B0BDE8F08FBD
S214006220044B01B0BDE8F04F184700BF20F3002034
S214006230B701010079600000C8EE002070B50A4C76
S2140062400A4B98470025201D4FF6FF727821084B11
S214006250A58398472146206080224FF44060054B76
S214006260BDE87040184700BF80FE012035F20000F0
S214006270DDFD0000615300002DE9F0414D4E4E4C0F
S2140062804E4D31464FF400720020A0474C4B301D57
S2140062904FF6FF724FF4FE711E60A84733688342C4
S2140062A068D0484B9847484890F801E0BEF1000F88
S2140062B02BD00027B8463A4605E001377745DAB2D4
S2140062C000F120001ED090F8B4114B1E0129134493
S2140062D0F3D13A44B118B0F8BAC191F840108C45E1
S2140062E003D8B0F8BCC18C45E7D232440137B0F8C9
S2140062F0B81182F8401077454FF00108DAB200F185
S2140063002000E0D1B8F1000F26D1304E8022314671
S2140063104FF44060A0472E4B301D4FF6FF72782199
S2140063201E60A8473368834233D00120294B984724
S214006330294E802231464FF40060A047274B301D7F
S2140063404FF6FF727C211E60A847336883422DD12A
S214006350B36823B1BDE8F081214B9847D5E780228A
S21400636031464FF40060A0470122B2601D4BBDE8E5
S214006370F0411847B368062B95D8012B9CBF002325
S214006380338702210722164B86F84610B2609847DC
S21400639089E7B368002BCBD1802231464FF44060AA
S2140063A0A0470122104BB2609847C1E70F4BBDE8EB
S2140063B0F0411847C8EE002031530000DDFD000014
S2140063C0C4EE00204D5F000020F3002080FE012078
S2140063D0C0EE002001610000C8F0002048F1002057
S2140063E079600000C96000003D620000F55E0000B4
S2140063F0004B1847F5890000014B5E225A74FEE7F1
S21400640000FF0120014B28225A74FEE700FF0120FE
S214006410014B29225A74FEE700FF0120014B2B2274
S2140064205A74FEE700FF0120FEE700BF014B402242
S2140064305A74FEE700FF0120014B21225A74FEE742
S21400644000FF0120014B3D225A74FEE700FF0120A9
S2140064501B491C4A914208B50ED01B4882420BD2FB
S214006460D343034423F003030433134451F8040BCB
S21400647042F8040B9A42F9D1144A15498A420AD2C4
S214006480D3430B4423F0030304331344002142F8A0
S214006490041B9A42FBD10F4A0F4B22F07F029A60F0
S2140064A0D3F8882042F47002C3F88820BFF34F8FD9
S2140064B0BFF36F8F094B9847094B9847FEE700BF1D
S2140064C0D41E010000220020642B0020702B002028
S2140064D0E8F800200040000000ED00E05101010057
S2140064E07DCA000030B44B1CC5B24FEA501005F010
S2140064F01F04C0B227D0C30103F1824303F5004353
S214006500181903EB540390F8402002F0FE0242F004
S214006510010280F84020EA070AD493F8302001F000
S2140065200F0102F0F002114383F8301030BC7047C0
S21400653093F8302002F00F0242EA0111C9B283F844
S214006540301030BC704704EBC01000F1824000F5FC
S214006550004090F8403003F0FE0380F8403030BC36
S214006560704700BF40F21223234A03FB01F1531881
S21400657093F8623050B1DBB2B3FA83F35B0901EBF8
S21400658083111144D1F866301E2B20DC10B41B4A50
S2140065901B4B1C4850611C491C4C4FF400524FF0DA
S2140065A04040C3F89820C3F88820C3F8A810C3F862
S2140065B0A80093F8CD20802102F0FE0283F8CD20BB
S2140065C099609C62986259615DF8044B70470B4B6A
S2140065D00B4A0F49596192F8CD3003F0FE0343F0A1
S2140065E0010382F8CD3092F8B63003F00F0343F083
S2140065F0500382F8B630704704220020003800426C
S21400660000800041006860010020004080000040DB
S2140066100268600140F21223224A03FB01F153187C
S21400662093F8623050B1DBB2B3FA83F35B0901EB47
S21400663083111144D1F866301E2B1EDC10B41A4AA2
S2140066401A4B1B4890601B491B4C4FF400124FF02E
S21400665080409A619A609862996293F85520022168
S21400666002F0FE024FF0404083F8552099609C628D
S214006670986259615DF8044B70470B4B0B4A0F4903
S214006680996092F8553003F0FE0343F0010382F858
S214006690553092F83A3003F00F0343F0600382F867
S2140066A03A30704704220020003800420080004143
S2140066B000686001200000C002000040026860011F
S2140066C040F21223224A03FB01F1531893F862307A
S2140066D050B1DBB2B3FA83F35B0901EB83111144CB
S2140066E0D1F866301E2B1EDC10B41A4A1A4B1B4813
S2140066F0D0601B491B4C4FF400224FF080409A613B
S2140067009A609862996293F85320082102F0FE027C
S2140067104FF0404083F8532099609C62986259611C
S2140067205DF8044B70470B4B0B4A0F49D96092F843
S214006730533003F0FE0343F0010382F8533092F81F
S214006740393003F00F0343F0500382F839307047B6
S21400675004220020003800420080004100686001EA
S214006760080000C0080000400268600140F21223E2
S214006770224A03FB01F1531893F8623050B1DBB2A2
S214006780B3FA83F35B0901EB83111144D1F8663049
S2140067901E2B1DDC10B41A4A1A4B1B4810611B49ED
S2140067A01B4C4FF080724FF080409A619A6098625E
S2140067B0996293F858204FF0007102F0FE0283F8B9
S2140067C05820996098629C6259615DF8044B704746
S2140067D00B4B0C4A0F49196192F8583003F0FE0330
S2140067E043F0010382F8583092F83C3003F0F0038F
S2140067F043F0050382F83C30704700BF04220020B7
S214006800003800420080004100686001000100C0BE
S214006810000200C002686001F0B4184A1849D36943
S214006820184C43F0100343250120D361C4F8F450FC
S2140068300A460860936813F00103FBD10121136038
S2140068409162146C1049114F6FF07F4060F317048B
S21400685002264FF48075202014649764D663156270
S214006860C1F88C00BFF34F8FBFF36F8FC1F88C0158
S21400687081F86533F0BCC860704700BF0008004070
S21400688000100042001C004000E100E0E0FFFF00B6
S214006890F0B4184A18499369184C43F480534325BA
S2140068A001209361C4F8E4500A460860936813F028
S2140068B00103FBD1012113609162146C1049114F42
S2140068C06FF07F4060F3170402264FF480754FF098
S2140068D0805014641765D6631562C1F88800BFF34C
S2140068E04F8FBFF36F8FC1F8880181F85C33F0BC1F
S2140068F0886070470008004000800141001C00408E
S21400690000E100E0E0FFFF0070B4184A1849D369C0
S214006910184C43F0080343250120D361C4F8F45013
S2140069200A460860936813F00103FBD10121136047
S2140069309162146C10494FF6FF7060F317044FF61F
S214006940E07602204FF480751464D664D063156236
S214006950C1F88C00BFF34F8FBFF36F8FC1F88C0167
S21400696081F8613370BCC860704700BF0008004003
S214006970000C0042001C004000E100E0F0B4194AA0
S21400698019499369194C43F4006343250120936128
S214006990C4F8E4500A460860936813F00103FBD17C
S2140069A0012113609162146C11494FF6FF7060F379
S2140069B017044FF6E07702264FF480754FF4001068
S2140069C014649764D6631562C1F88800BFF34F8FCE
S2140069D0BFF36F8FC1F8880181F85533F0BC88602B
S2140069E0704700BF0008004000600141001C0040E6
S2140069F000E100E0F8B5384A38499369384C43F46A
S214006A008043432501209361C4F8E8500A46086095
S214006A10136913F00103FBD142F2231003254FF450
S214006A2046740421136015731486D0805171136860
S214006A302C492D4F2D4E2E4D43F0020313608847F0
S214006A402C4B2D4AD96A2448DFF894C0DFF8ACE016
S214006A5041F08701D9624FF40671116240F2772146
S214006A6091620221C2F824110121C2F8DC115160A2
S214006A70C26942F48042C261802443224FF0404003
S214006A80CCF80421C7F814E09C609E62986293F8E4
S214006A90472002F0FB0283F8472093F847204FF484
S214006AA0005102F0FE0283F847205C61C3F88810AC
S214006AB0C3F8A850C3F8A80093F8CD2002F0FB0254
S214006AC083F8CD2093F8CD2002F0FE0283F8CD2087
S214006AD0C3F89810F8BD00BF0008004000C0014190
S214006AE0001C00401968000000380042800000408A
S214006AF0002000400080004100E000410068600186
S214006B00F8B5314A31495369314C43F400434325C3
S214006B1001205361C4F8A4500A460860136913F0B4
S214006B200103FBD1042403254FF4467042F22311DF
S214006B30136015731086D180547113682549264F4B
S214006B40264E43F0020313608847254B254AD96A30
S214006B50DFF898E041F40301D96240F21D21116389
S214006B6040F27521916308204FF04041C2F82C4155
S214006B70C2F8D4515460C7F80CE098609E629962DF
S214006B8093F84320184C02F0FB0283F8432093F856
S214006B9043204FF4002102F0FE024FF0804583F8B8
S214006BA04320586199609D629C6293F8532002F0DE
S214006BB0FB0283F8532093F8532002F0FE0283F87A
S214006BC053209961F8BD00BF00080040003C00401B
S214006BD0001C004091680000003800420800004099
S214006BE00080004100E00041080000C0006860012D
S214006BF0F8B5324A32499369324C43F40053432580
S214006C0001209361C4F8E8500A460860136913F03F
S214006C100103FBD142F2231003254FF446740421EE
S214006C20136015731486D080517113682649274F58
S214006C30274E284D43F0020313608847264B274A09
S214006C40D96ADFF89CE041F4194140F2162440F27C
S214006C507620D9621464062190640520C2F82811B3
S214006C604FF00074C2F8D80110214FF080405160F8
S214006C70C7F810E09C6098629E6293F8592002F074
S214006C80FB0283F8592093F859204FF0807102F0E8
S214006C90FE0283F859205C61996098629D6293F8C1
S214006CA0582002F0FB0283F8582093F8582002F090
S214006CB0FE0283F858209961F8BD00BF0008004026
S214006CC000A00141001C0040096900000038004295
S214006CD0000200C0000100C00080004100E000414A
S214006CE000686001F8B5324A32495369324C43F4C1
S214006CF08043432501205361C4F8A4500A46086027
S214006D00136913F00103FBD142F2231003254FF45D
S214006D1046740421136015731486D080517113686D
S214006D202649274E274D284F284C43F00203136070
S214006D308847274B274AD96A41F00141D9624FF468
S214006D401D70082140F2122EC2F850E09065C2F87D
S214006D50301107204021C2F8D001516002204FF0C8
S214006D604042B76098609D629A6293F8412002F0B4
S214006D70FB0283F8412093F841204FF4001102F003
S214006D80FE024FF0804583F84120586199609D626D
S214006D909C6293F8552002F0FB0283F8552093F886
S214006DA0552002F0FE0283F855209961F8BD00BF19
S214006DB00008004000380040001C00407D690000CC
S214006DC0003800420200004000686001200000C059
S214006DD00080004100E00041814205D006D9091A32
S214006DE0D140014488420AD008467047411AD14033
S214006DF0411A884208BF01F1FF3108467047013149
S214006E0008467047024B1888003018BF01207047AC
S214006E10943600200C4B0D4A10B5A3FB00130C4C07
S214006E200021DB0808462380904701210020094BFB
S214006E30984702210020084B984703210020074B63
S214006E40BDE81040184700BFCDCCCCCC656500002F
S214006E5094360020C16600006D67000015660000CD
S214006E602DE9F04F8E4B83B0984747F22F53984248
S214006E70074658D88B4CA3780133DBB2072BA37098
S214006E8000F2E880002B5FD1E3780133DBB2072BFA
S214006E90E37000F2CC804CF61F339F4240F2CC8069
S214006EA0814B98476379002862D00133DBB2092B07
S214006EB0637100F2EC807D4EDFF80C82DFF8F4A1FF
S214006EC0DFF8EC91A7F57A67002440F2122505FB5F
S214006ED004652B6A9847B842834671D9AB68202B65
S214006EE06EDDB5F80A3201339BB2032BA5F80A32E1
S214006EF000F28F8040F6B7339B454BD840F2122500
S214006F0005FB0465AB68FA2B44DDB5F80C3201339B
S214006F109BB2272BA5F80C326BD80134042CD4D1A5
S214006F2003B0BDE8F08F47F617135E4C9842A3787F
S214006F3029D9002B40F09880E3782BB1013BDBB2D7
S214006F40E370002B00F0A7804CF608739F42A2D98E
S214006F5023790133DBB2032B2371A1D90B20544BC9
S214006F60984704232371504B9847637900289CD197
S214006F70002BA0D0013BDBB26371002B9BD10A2013
S214006F804C4B984797E7002B7CD147F223739842E7
S214006F90DAD9D1E7E5B22846C04702460028BCD178
S214006FA040F2122303FB0463B3F80C1289B20029E3
S214006FB0B3D0681DC0B24049A3F80C228847ACE79E
S214006FC0E5B22846C047002894D140F2122303FBBE
S214006FD00463B3F80A2292B2002A8BD0B3F80A22CE
S214006FE0013A92B2A3F80A22002A83D12846D04753
S214006FF080E75FFA84FB0BF10500C0B22F4B984781
S2140070002822584641F288312D4BA5F80C22984785
S21400701083E7E3B218460193C847019B18468023CE
S214007020A5F80A324FF47A71254B984762E7204B51
S214007030062098470423E3702379002B3FF430AFF3
S214007040013BDBB22371002B7FF42AAF0B20194BD8
S214007050984725E70420194B984704224FF4FA6016
S214007060184BA27098476FE7013BDBB2A370002B6A
S2140070707FF46AAF104B04209847A378002B7FF468
S21400708063AF59E74FF47A700E4B98475CE70A20D7
S214007090074B98470FE70620064B984754E700BF74
S2140070A071D300009436002039B600000422002078
S2140070B0D5D50000E5D5000091D5000081D50000AB
S2140070C019BC0000156E0000F9BB000070B41F4B21
S2140070D01F4C93F8630093F862100A1CC0B218BFE6
S2140070E0012200EB021202F1180603EB860602F1FB
S2140070F03805D6F80660E66603EB85055832D5F8FF
S2140071000650256703EB820201F0FF01D2F8062045
S214007110626793F863200132D2B20F2A83F86320A5
S21400712084BF002283F8632093F8F62152B290427F
S21400713007D1B1FA81F14909FF2283F8621083F87A
S214007140F621034B0122DA6270BC7047042200204D
S2140071500010004270B41F4B1F4C93F8750293F852
S21400716074120A1CC0B218BF012200EB021202F110
S214007170180603EB860602F13805D6F81862E666AE
S21400718003EB85055832D5F81852256703EB8202C3
S21400719001F0FF01D2F81822E26793F87522013257
S2140071A0D2B20F2A83F8752284BF002283F8752294
S2140071B093F8082452B2904207D1B1FA81F14909F6
S2140071C0FF2283F8741283F80824034B0122DA6244
S2140071D070BC7047042200200080014170B41F4B31
S2140071E01F4C93F8870493F886140A1CC0B218BF85
S2140071F0012200EB021202F1180603EB860602F1EA
S2140072003805D6F82A64E66603EB85055832D5F8C5
S2140072102A54256703EB820201F0FF01D2F82A24E4
S214007220A26793F887240132D2B20F2A83F8872404
S21400723084BF002283F8872493F81A2652B290421D
S21400724007D1B1FA81F14909FF2283F8861483F841
S2140072501A26034B0122DA6270BC70470422002013
S214007260000C004270B41F4B1F4C93F8990693F81D
S21400727098160A1CC0B218BF012200EB021202F1D7
S214007280180603EB860602F13805D6F83C66E66675
S21400729003EB85055832D5F83C56256703EB82028A
S2140072A001F0FF01D2F83C26626793F89926013276
S2140072B0D2B20F2A83F8992684BF002283F8992633
S2140072C093F82C2852B2904207D1B1FA81F14909BD
S2140072D0FF2283F8981683F82C28034B0122DA62E3
S2140072E070BC704704220020006001412DE9F04781
S2140072F04B6A0C469046064698479C4B0546984770
S214007300E22D38BFE225B4F84030B4F84030ADB2D4
S214007310AB42814682B280F0FF8094F85410012977
S21400732040F20F81A4F84050B4F84010B4F8423050
S214007330994284BFB4F84030A4F84230B4F8401004
S214007340B4F80432994240F2D980A38BB3F5404F8B
S214007350C0F0D480B4F8063201339BB2632BA4F895
S214007360063200F2E980A4F84A20B4F84A20B4F8BD
S21400737040307F4F9A423CBFB4F84A30A4F84030C1
S214007380A36803FB06F31B0C40F29710A3FB000157
S2140073902A460023B8477749774B94F864205E81E5
S2140073A04E281FFA89F9C5EB451E38BF4E2001FB53
S2140073B006F140F61842A9EB05094FEA4E0E00FB0F
S2140073C00E1E02FB09FA4E2384F86430D6454FF0B1
S2140073D0000194F8653084F8651088BFAEEB0A0E9D
S2140073E0A4F8440088BF4FEA1E41A0F10C07634B87
S2140073F0B4F8080294F85220984740F6FF711FFA36
S21400740080FE8E45724628BF0A46B2F5007F38BF1A
S2140074104FF40072A4F80822A068B4F80832B4F852
S214007420082200FB0EF00014A3F5007303FB00F324
S214007430B3FBF2F303F50073A4F84830B4F8480041
S2140074404F4BB3FBF5F38842C7EB471228BF0846FD
S2140074505200B0F5007F02F53A7238BF4FF4007064
S21400746005FB02F2A4F84800A2EB0A02D4F808E0F2
S214007470B4F848001B04B3FBFEF303EB12438B4245
S21400748028BF0B46B3F5007F38BF4FF40073834226
S21400749008F110003CD2A4F84830C0B2394B9847E7
S2140074A0B4F84810A26841F20E5303FB01F107EB53
S2140074B087033C3305FB1313C9EB092999444FEAAC
S2140074C0193905FB09F52D0A02FB05F52D0CC4F844
S2140074D0EE51A787E38B012B43D0E38B022B42D0E0
S2140074E0E38B032B0CBF284A284AA38F5386A38F0F
S2140074F003339BB21386E687BDE8F087002394F833
S214007500061284F8063294F8071284F807322AE73F
S214007510C0B21F4B9847C3E7591BA3EB1111A4F841
S2140075204010B4F842108B427FF4FEAEB4F8403000
S214007530013BA4F84030F7E6B4F84030A4F8043233
S21400754011E7E91A03EB9101A4F84010B4F84010D3
S2140075508B427FF4E9AEB4F840300133A4F84030F3
S214007560E2E60C4AC1E70C4ABFE700BF99D3000029
S21400757041FE00008C94020094360020D96D000075
S214007580C0047700D5D5000000A0014100380040B7
S214007590E5D5000000C00141003C004010B4094B96
S2140075A0094C1B68094993F8403003EB830303EB4F
S2140075B083035B0096339BB20246184623465DF86B
S2140075C0044B1847C4EE0020ED7200000422002091
S2140075D010B4094B094C1B68094993F8403003EB7B
S2140075E0830303EB83035B0096339BB20246184685
S2140075F023465DF8044B1847C4EE0020ED720000E9
S2140076001624002010B4094B094C1B68094993F84E
S214007610403003EB830303EB83035B0096339BB29C
S2140076200246184623465DF8044B1847C4EE002071
S214007630ED7200002826002010B4094B094C1B6888
S214007640094993F8403003EB830303EB83035B00A5
S21400765096339BB20246184623465DF8044B1847FD
S214007660C4EE0020ED7200003A28002070B51E4ED1
S2140076701E4D33681E4C93F8400000EB800000EB74
S214007680800040009630294680B20022A04733682A
S21400769093F8400000EB800000EB8000400096303E
S2140076A005F2122180B20122A047336893F8400009
S2140076B000EB800000EB80004000963005F224418D
S2140076C080B20222A047336893F8400000EB8000A7
S2140076D000EB80004000963005F23661234680B20B
S2140076E00322BDE870401847C4EE002004220020A4
S2140076F0ED72000030B51549154C8B69154D1648CE
S214007700012243F080038B6183B02A702270804789
S214007710124B9847124B9847124B9847124B984774
S21400772002232370114B9847114AD3680BB103B05C
S21400773030BD0C3206218DE806000E480E490F4C6F
S2140077404FF40072A0470128F1D0FEE70008004081
S2140077500038004200E00041F5690000016B0000BF
S214007760F16B0000E56C0000D54400006D7600006B
S21400777094360020A1810000481101007DEF000032
S214007780084A094B12685B8992F8400000EB8000BB
S21400779000EB80004000963080B2834201D0034B5D
S2140077A018477047C4EE0020943600206D7600001F
S2140077B0014B1869704700BF943600200549042223
S2140077C08B8B9BB21BB9013AFAD10120704700207F
S2140077D0704700BF0422002029482DE9F04100220E
S2140077E040F2122404FB020101328B8B9BB26BBB6E
S2140077F0B1F80C329BB24BBB042AF3D1214A116874
S2140078009C4614319E4640F2122404FB03052F4684
S214007810B5F84E2092B28AB1B5F84E600A88B6B274
S214007820921B002AB8BF5242B2F5FA6F2E460FDC02
S21400783095F81022022A0BD0A7F84EE00133042B4D
S21400784001F10201E1D1BCF1000F0DD1BDE8F081DC
S214007850B6F80E2221F8082CB6F84E200A804FF013
S214007860010C86F810E2E7E7074B084C984702221F
S214007870A446114601230520BDE8F041604700BF3D
S2140078800422002048F10020C96000009DD60000B8
S214007890134904228B8B9BB2D3B9013AFAD170B547
S2140078A0104C114DA047114B1B689B8B032B04D823
S2140078B06A690F4B801A984206D90E4B98470E4BB2
S2140078C0984730B1A04768610C4BBDE87040184738
S2140078D070470123184602220521094EB047F1E7FA
S2140078E00422002035F2000094360020C0EE00206E
S2140078F0FF2D93023D62000045BC0000D9770000D2
S2140079009DD6000010B53B4C23894FF6FF7293427C
S2140079101CBF01332381237E0133DBB2632B18D8CF
S2140079202376354B984794F820300133DBB2072B8B
S21400793017D884F82030638C304A01339BB251212B
S214007940632B638451741DD8322B24D0192B37D067
S21400795010BDE369002101330322E36121766276DC
S214007960DFE794F821300022012B84F8202020D075
S214007970627E52B90133DBB2102B00D9002384F8A3
S2140079802130D8E70023638410BDA1790029F1D007
S214007990013A6276EEE71A4C23685B07D8D5194B96
S2140079A002214FF400709847236823F004032360F5
S2140079B010BDA279D2B1627E002AE9D10223DEE7A9
S2140079C0A38C01339BB2092BA384C1D90E48002394
S2140079D040F2122101FB0302183201331268002A1A
S2140079E0B6DC042BF6D10023A38410BD022384F852
S2140079F02130A0E794360020A9C5000000FF012032
S214007A008CF800204DCA0000042200202DE9F8431F
S214007A10714C724B94F862509847714B9847B5FA80
S214007A2085F5704B98476D096F4B984704EB8513A7
S214007A306E4AD3F866001064D3F8E6605664D3F84E
S214007A40660190644FF0010C4FF0FF0E84F8625010
S214007A5084F863C084F8F6E1D3F86670644E65482F
S214007A606549BFB2013F5763D3F878723764D3F8DD
S214007A70F892C6F84490D3F87873376584F8745251
S214007A8084F875C284F808E4D3F87872BFB2A7F217
S214007A902F477763D3F88A740764D3F80A95C0F83B
S214007AA04490D3F88A75C76484F8865484F887C4EB
S214007AB084F81AE6D3F88A74BFB2A7F65E0747635F
S214007AC0D3F89C760F6403F2167703F29668D7F81D
S214007AD006704F6403F29673D3F806308B6484F80E
S214007AE0985684F899C684F82CE8D8F806309BB2E5
S214007AF0A3F68D434B6372B6136843F0020313601C
S214007B00336843F002033360036843F00203036004
S214007B100B6843F002030B6093689C07FCD4344A5E
S214007B2093689807FCD4334A93689907FCD4324A82
S214007B3093689B07FCD462B63048314B314C4461A5
S214007B4093F8CD20304902F0FE0242F0010283F89D
S214007B50CD2093F8B62002F00F0242F0500283F8D0
S214007B60B620C46093F8532002F0FE0242F00102F1
S214007B7083F8532093F8392002F00F0242F05002A7
S214007B8083F83920046193F8582002F0FE0242F090
S214007B90010283F8582093F83C2002F0F00242F0ED
S214007BA0050283F83C20846093F8552002F0FE021C
S214007BB042F0010283F8552093F83A2002F00F02B3
S214007BC042F06002012083F83A2081F8260081F80E
S214007BD02700BDE8F88300BF0422002019680000D3
S214007BE091680000096900007D69000000100042ED
S214007BF000800141000C0042006001410038004254
S214007C0000800041026860019436002000000000F9
S214007C102DE9F04F89B04FF00008DFF8C893CDF893
S214007C200080CDF80880CDF8048040F2122606FBCE
S214007C3008935A68002A40F39E802C335FFA88F433
S214007C401B682046984706FB089318331B68002BD2
S214007C5003DD029B0133DBB2029306FB08931F464B
S214007C609A69039293F8625057F8042FEDB222B146
S214007C70D54A1288002A00F0C98006FB0895002025
S214007C802A8B2883698B6883AB6B21469847B5F8A7
S214007C9004329BB2002B40F0848006FB0893183316
S214007CA01B68002B05DD019A1346002A08BF2346F1
S214007CB0019306FB089318331B68002B03DD009B1B
S214007CC00133DBB2009308F10108B8F1040FAED11E
S214007CD0009B002B00F08A81019B40F2122C0CFBCB
S214007CE003F74FF0000E0CFB0EF009EB000399694A
S214007CF029BB93F86240B4FA84F46409240163183B
S214007D0003F118029200D5194D4403F158060244B7
S214007D103833D5F8065000EB860600EB83034A445A
S214007D204E444B440131C2F8065005F1FF38102985
S214007D30A5F10205C6F80680C3F80650DFD10EF19D
S214007D40010EBEF1040FCED1029B002B00F0F9818C
S214007D50019A40F2122303FB029393F86330023336
S214007D6003F00F0389F8F63189F8083489F81A36D3
S214007D7089F82C3874E10021B3F8EE01A3F8EE116F
S214007D80B3F8F001A3F8F011B3F8EA01A3F8EA118A
S214007D90B3F8EC01A3F8EC115FFA88F4A3F84810E6
S214007DA051E76B6B984748BBB5F80422874B91B2F6
S214007DB04DF24C4202FB01F2A3FB0213D21A03EB74
S214007DC05203C3F3CF23A3F53B52213A92B246F6B1
S214007DD053718A4200F25A81DA0AA5F80E22B5F8E3
S214007DE00E22110406FB089248BFA5F80E02A2F860
S214007DF04E3092F81032012B00F0988106FB089363
S214007E000022A3F80422A3F8062246E734331B68B0
S214007E10984700287FF431AF3B68C3B16C4A934261
S214007E2040F29D81B3F5800F00F2A1816FF4A97234
S214007E30A3F5F133134446F22660A3FB0001654F19
S214007E405FA3D3E90023B84700F23A739BB2B5FAB2
S214007E5085F206FB08F7114609EB0702490913618C
S214007E6002F5F0730D460491104600211A464FEABB
S214007E70051E0594DFF870C10D4614468EE0D3F853
S214007E8000A0554A1B68934240F32181534B9A4504
S214007E9005D84FEA1A1202FB01F24FEA124B0EEB1C
S214007EA00503183307EB8303D0F810A0D4F80610A8
S214007EB04B44DA44B1FBFAF1C3F80610D3F806A037
S214007EC04168D3F806208AFB01AB4FEA1A6141EA03
S214007ED00B210331914240F2F680D3F806100339A5
S214007EE0B0F80E22D0F808A0B0F80EB20EEB0503DC
S214007EF00FFA8BFB18330AFB0BFA07EB830312B25D
S214007F004B44A2EB1A4211440EEB0502D3F806B01E
S214007F10183207EB820259454A4488BFD3F8061048
S214007F20D2F80620B0F8483088BF01F1FF31511A68
S214007F3040F6965A0AFB01FA4FEA1A2A9BB203FB4E
S214007F400AF3B0F83EA0B0F84A201B0C03F29713D1
S214007F501FFA8AFA0AFB03F392B2B3FBF2F3002984
S214007F6000F0AD808A468B4280F09B800EEB050BBE
S214007F700BF1380B07EB8B0BCB44CB1ACBF8063048
S214007F800EEB0503583307EB83034B440135102DE6
S214007F90C3F806A000F0B1803CF8021B03468B46EF
S214007FA053F8042FB2F5000F7FF769AF1A680C4933
S214007FB08A4240F38F804FEA9B0B70E7AFF3008056
S214007FC0AD1C3E00000000009436002001011000A9
S214007FD053E3010041FE0000FFFF0300FFFF0F0018
S214007FE0FFFFA30004220020020B0100029B4BB9F6
S214007FF0FF2389F8F63189F8083489F81A3689F8A3
S2140080002C382DE0019A5B4D40F2122303FB0293BD
S214008010594A93F86330023303F00F0389F8F631B8
S21400802089F8083489F81A3689F82C389047534866
S214008030009F04685249534A534B67F34104046057
S214008040086885F8267067F341000860116867F3D2
S214008050410111601A6867F341021A604B4B98475A
S214008060B9F86C04ADF81800B9F85A42484BB9F89C
S2140080707E16B9F84820ADF81A4006A8ADF81C10D0
S214008080ADF81E20984709B0BDE8F08F0A23A5F882
S2140080900E3206FB08930022A3F80422A3F8062259
S2140080A0FBE50EEB0503383307EB83034B44012255
S2140080B0D988DA801A894FF000021A8160E74FF0FB
S2140080C0010A51464FE7002908BF012108E74FF48F
S2140080D08042E0E61A682F498A420BDC1B68C3F52B
S2140080E030031B110BFB03FB2B4BA3FB0B3B4FEA95
S2140080F05B4BD4E64FF0000BD1E6049B059C07EBE8
S21400810083154D444F44D5F866307B61D5F866310B
S214008110BB61039B1BB9174B93F8263013BB99F929
S2140081204838002BB8BF89F84888B6E5022382F89D
S214008130103206FB08930022A3F80422A3F80622B6
S214008140ABE5FF2389F8F6310B4A89F8083489F83D
S2140081501A3689F82C389047104B98477EE740F23D
S2140081603A7374E62146BB6B01209847D7E746F67C
S21400817060536CE69436002021F2000000100042A6
S21400818000800141000C0042006001417DF30000C8
S214008190BD450000FFFFAF00ABAAAAAA0D7A0000FB
S2140081A02DE9F04F5D4B5E4D8BB098475D4B5E4AB8
S2140081B04321C3F89010536943F4806353612B78CE
S2140081C043F001032B706E6816F00106FBD12E6299
S2140081D0EE61EB69554CDFF880815549554FDFF865
S2140081E07CB1DFF87CA143F00073EB612B6A43F4AB
S2140081F000532B62EB6943F40033EB61EB6940F606
S214008200510043F00203EB61A8602A6B402302434F
S2140082102A636E636360A162C4F82880636094F882
S214008220462042F0040284F846204FF41811A36159
S2140082300620B8474FF400633F4A6360A262C4F862
S2140082402880636094F84B2042F0040284F84B20A8
S2140082504FF42C11A3610B20B8471023374A6360F4
S214008260A262C4F82880636094F8442042F00402B6
S21400827084F844204FF41011A3610420B84701236A
S2140082802F4A6360A262C4F82880636094F8402096
S21400829042F0040284F8402031463046A361B847D5
S2140082A02B78284A43F002032B709047264B8BF816
S2140082B028601B6830460C3340F2122101FB06A2F0
S2140082C0013633F9024BA2F80E42042E82F8100251
S2140082D0F4D1002309930793EBB1022006901B4BC1
S2140082E098471B49BBF8003052224A74002B39D0FD
S2140082F0069A013BC2F10A00ABF80030134B9847D0
S214008300144B9847BBF80830182B00F23C829BF8B9
S2140083102830002BE1D105200690E0E7D5B4000018
S21400832000280040001C004000080040008000417B
S21400833040000240E56400000008024010000240D1
S21400834001000240D1CC000048F1002081F400007A
S21400835000FF012005790000000002C094360020CE
S21400836004220020A84B9847002800F0068200232D
S214008370CBF81030994640F2122303FB09A303F50D
S214008380F47309F10109D3F80630DBF81020B9F1CF
S214008390040F1344CBF81030EDD1BBF80830182B7F
S2140083A000F2FD81994ACDF8209026234FF0000870
S2140083B05374974B5FFA88F0984740F2122303FBFA
S2140083C008A2C0F30F2113680193938B0646C3F3EC
S2140083D007239048CD1A0068002DB8BF6D42994219
S2140083E090F8419090F8467000F087814FF00003B7
S2140083F082F8463040F2122303FB08A42D1194F8AD
S2140084004630032D4FEA131303F10203A8BF0325DA
S2140084100493EBB203930123013F0293B9F1020FD9
S21400842000F00E817C4B9847002840F00981B9F196
S214008430010F00F08981B9F1030F00F0A7812368CE
S2140084402268F31A48BF0F3302EB2313042223607B
S2140084504FF000038BF8283084F8533084F852200D
S2140084602368019A9A4200F02A81FAB2A683022A69
S2140084706368226800F23681C2F30F2E21680591E8
S21400848007EB07220EF101016448D4F800C011443E
S214008490724400EB410100EB42024FF6FF7EF445CA
S2140084A0098C128C00F043819DF81400891A120280
S2140084B000FB012161602268964204D062689BB28C
S2140084C0934200F0128140F2122303FB08A42546D3
S2140084D055F8042FE260636B984738B1A3884FF0D5
S2140084E00003A3806B884FF000036B8040F21223DA
S2140084F003FB08A425464A4B55F8040F98476060CE
S2140085002B689BF806201B12A3602968C4F85E102F
S21400851032B1E38B9BF807109BB2994200F0F980CA
S21400852008F10108B8F1040F7FF443AF374ADDF8CD
S21400853020902A2353743B4B98479BF82830002BF7
S214008540069B0CBF0A200520C01A80B2364B9847FF
S2140085502E4A24235374354B9847002800F0228176
S2140085609BF83030002B00F02B81013B8BF830302D
S2140085709BF82830002B00F0DD809BF83130002B74
S21400858040F0D88001238BF83130294B9847079B61
S21400859004462BB9274B1B685B0727D40794B6E61F
S2140085A0BAF81C309BB23BB9B9F10109F2D0BAF85F
S2140085B01C309BB2002BF7D09BF82830002B079B73
S2140085C008BF0A22A4EB030318BF05229A42C0F094
S2140085D0FB80099B002BDDD0013B0993DAD1164BBB
S2140085E00C209847134B1B685B07D7D5134B02210B
S2140085F04FF4007098470F4B0E4A1B68079423F001
S2140086000403136083E600BFB145000000FF0120AD
S21400861059C20000C4EE002045BC0000000B01005B
S21400862005B60000117C000081F40000D15B00005C
S21400863035F200008CF80020E5D500004DCA000099
S21400864094F85430AB4202DD94F85330B3B9BBF81B
S2140086500830B3F5AF7F11D92023039A8AF8533038
S2140086608AF854208AF865328AF866228AF87734BF
S2140086708AF878248AF889368AF88A2694F8543054
S214008680C3F10403DBB284F85230236894F8521026
S2140086902268F31A0B411344236094F853302BB12D
S2140086A094F85330013BDBB284F853304FF00003AC
S2140086B08BF828302368019A9A427FF4D6AE236856
S2140086C09E423FF4D2AE23689E422368FAB2CCBFE5
S2140086D0013303F1FF332360022AA683636822680E
S2140086E07FF6CAAE12026260E5E6029B049A013388
S2140086F09A4202937FF492AEE5E692F846301F2B3C
S2140087003FF678AE92F846300133DBB282F8463058
S21400871070E6012A9BF819304BD90022CBF82C20A2
S214008720002B3FF4FDAE013B8BF81930F8E66FF0F6
S2140087307F41BFE6284B9847284B9847284B9847D9
S21400874000238BF8313020E7BBF80830B3F5AF7F55
S2140087507FF675AE23682268F31A48BF0F3302EB24
S21400876023132360042201214FF000038BF8281006
S21400877084F8533084F8522072E61A4B9847002843
S2140087807FF4F5ADC3E5184B9847C0E5236822682B
S214008790F31A48BF3F3302EBA313062257E6124BE9
S2140087A09847FFE5114B02209847C8238BF83030D6
S2140087B0DEE6002B3FF4B4AE0022CBF82C20B2E766
S2140087C002200B4B9847D3E60A4B0C2098474FF4F1
S2140087D0C8730993DEE600BF0579000091780000B3
S2140087E0C5C40000D5440000616E000081D50000BD
S2140087F091D50000D5D5000070B50B4A0B4C5369D7
S2140088000B4D0C4943F4807353612046256088471E
S2140088102046094B4FF400624FF47A719847204681
S214008820064BBDE8704018470008004070F1002075
S21400883000200040C99A00000D9B0000D59B000058
S21400884000B583B0064B01A89847064B9A680AB94C
S214008850A5221A7301A8044B984703B05DF804FBE1
S214008860E58C000000200040F58C000070B5074A3B
S214008870074CD369074D084943F48063D36120460B
S214008880A8472046054BBDE8704018470008004042
S21400889068F100201D8F000000280042258F000090
S2140088A02DE9F0412D4F2E4E2E4D84B001A8B04735
S2140088B0D7F88020D7F8A030D7F890405C40144016
S2140088C001A85C40A8476846B047D7F88010D7F89C
S2140088D0A020D7F8903082EA030808EA0108684624
S2140088E088EA0208A84718F4000F0CBF00230223EA
S2140088F002A8C4F380541C43B047D7F88010D7F8BA
S214008900A020D7F8903082EA030808EA010802A8F7
S21400891088EA0208A84718F0804F0CBF00230423FB
S21400892003A81C43B047D7F88020D7F8A030D7F864
S21400893090605E4016405E4003A8A847002E04DB09
S214008940E0B2013004B0BDE8F08144F008040F2C1A
S214008950F6D1012004B0BDE8F08100BF00800041E0
S214008960E58C0000F58C00002DE9F0411E4DDFF887
S21400897080801E4E84B002A8C047D5F88020D5F867
S214008980A030D5F890405C40144002A85C40B04748
S21400899001A8C047D5F88020D5F8A030D5F890704B
S2140089A05F40174001A85F40B04717F4804F0CBFE8
S2140089B00023022303A8C4F300341C43C047D5F8A1
S2140089C08020D5F8A030D5F890505D4003A815401B
S2140089D05D40B04715F4004F0CBF00200420204334
S2140089E004B0BDE8F08100BF00800041F58C0000B7
S2140089F0E58C00002DE9F041A44BA54CA54FA64DF3
S214008A00A64E9847A64BA748A749DFF8D0E24FF4F2
S214008A108002C3F88420C3F8A800C3F8A810C3F8DF
S214008A20842093F8D61041F0040183F8D610C3F8DA
S214008A30982093F8D6209D4902F0FE0283F8D620AF
S214008A404FF40002C3F88420C3F8A800C3F8A84077
S214008A50C3F8842093F8D74044F0040483F8D74042
S214008A60C3F8982093F8D72002F0FE0283F8D720A8
S214008A704FF08042C3F88420C3F8A800C3F8A8705B
S214008A80C3F8842093F8DE40894F44F0040483F84A
S214008A90DE40C3F8982093F8DE4004F0FE0483F826
S214008AA0DE404FF00044C3F88440C3F8A800C3F883
S214008AB0A850C3F8844093F8DF5045F0040583F8C7
S214008AC0DF50C3F8984093F8DF4004F0FE0483F8C4
S214008AD0DF404FF48054C3F88440C3F8A8E0C3F8DE
S214008AE0A810C3F8844093F8CC50DFF8F4E145F0C2
S214008AF0040583F8CC50C3F8984093F8CC4004F0B3
S214008B00FE0483F8CC404FF48044C3F88440C3F896
S214008B10A860C3F8A810C3F8844093F8CE50654EFA
S214008B2045F0040583F8CE50C3F8984093F8CE403D
S214008B3004F0FE0483F8CE404FF40044C3F88440AB
S214008B40C3F8A870C3F8A810C3F8844093F8CF50B1
S214008B50594F45F0040583F8CF50C3F8984093F872
S214008B60CF40564D04F0FE0483F8CF404FF000642B
S214008B705C619C609A62C3F828E093F85B4004F05E
S214008B80FE0483F85B404FF40034C3F89440C3F807
S214008B908840C3F8A820C3F8A86093F8D140484E90
S214008BA004F0FE0483F8D1404FF480145C619C60AE
S214008BB09A629F6293F854400EF5FC3E04F0FE0461
S214008BC083F854400EF1040E4FF480245C609862E3
S214008BD0C3F828E093F852003A4C00F0FB0083F804
S214008BE0520093F8520000F0FE0083F852004FF453
S214008BF08060C3F88400C3F8A850C3F8A810C3F870
S214008C00840093F8CA5045F0040583F8CA50C3F8A8
S214008C10980093F8CA004FF480350F3F00F0FE002E
S214008C2083F8CA00C3F89450C3F88850C3F8A82045
S214008C30C3F8A87093F8D0004FF4006200F0FE006E
S214008C4083F8D000C3F88420C3F8A860C3F8A8103F
S214008C50C3F8842093F8CB1041F0040183F8CB10BE
S214008C60C3F8982093F8CB2002F0FE0283F8CB20BE
S214008C70A047154A154C13691549164843F040039A
S214008C801361A047144BBDE8F0411847C18F0000A0
S214008C90800002C0004002C0008002C000400240C7
S214008CA00080004100000240400002C0000002C0F8
S214008CB000800240020000C0100000C00004024015
S214008CC000080240F987000000080040118D0000EF
S214008CD0004000414CF100206D880000001002406A
S214008CE0000800C0EFF31083036072B6BFF35F8F17
S214008CF0704700BFBFF35F8F036883F31088704729
S214008D00436903B118477047836903B11847704732
S214008D1010B5044B0446984718B9034A034B84E839
S214008D200C0010BD29910000018D0000098D000087
S214008D302DE9F84F244F1E4605460C469146B84787
S214008D40224B074628469847B6F5007F37D800FBE3
S214008D5007F0A0422FD3331998422CD3DFF878803F
S214008D60D8F800304FEA543A9A451CD02146284697
S214008D70DFF868B0D847D0B924F4FF5121F01F01BE
S214008D802846134B98470127C8F800A021462846D6
S214008D90D84760B92146284633464A460D4CA04778
S214008DA03846BDE8F88FDFF834B00027EEE76FF0FE
S214008DB01000BDE8F88F6FF00D00BDE8F88F6FF07B
S214008DC01E00BDE8F88F00BF7D9100008591000071
S214008DD08D910000A9910000D0360020BD910000C2
S214008DE0034B1B68B3EB503F14BF012000207047B5
S214008DF0D036002030B585B005890391144602921E
S214008E00074BADF804504FF4004201A91438ADF8F2
S214008E1006209847002808BF204605B030BD00BF92
S214008E20AD95000030B585B00589039114460292D1
S214008E30074BADF8045048F2010201A91438ADF80A
S214008E4006209847002808BF204605B030BD00BF62
S214008E50AD95000010B5044B0446984718B9034A70
S214008E60034BA261636110BD21950000258E0000B2
S214008E70F58D000010B5034B0446984708B9A0616D
S214008E80606110BD2D950000004B184751950000FD
S214008E90004B184799950000C1F3090102F480625F
S214008EA00A4382831046704710B584B0848B0391C2
S214008EB00292054BADF804404FF4004201A9ADF80C
S214008EC00620984704B010BDAD9500001430086029
S214008ED0002070472DE9F0470679002E08BF2026AF
S214008EE08E4212D2A9B10025DFF82C9080460F469C
S214008EF02C464046C8473319A040DCB2A74245EA94
S214008F000005F6D82846BDE8F087034BBDE8F047D5
S214008F1018470D46F6E700BFBD9A0000004B1847FD
S214008F207D9A0000004B1847AD9A00002021014BA7
S214008F30184700BFD58E0000044A05491368002B69
S214008F4008BF0B461844106018467047D4360020F9
S214008F50E808012038B5194B1D682B681C6DE00722
S214008F6028D4A20522D4A3011BD4E00114D42202E3
S214008F7009D52A68EB68526C12F0200F14BF022144
S214008F80012128469847230703D5EB680421284685
S214008F9098472B681C6538BDEB6800212846984723
S214008FA0E5E7EB68032128469847DEE76B68284626
S214008FB09847D8E7AB6828469847D2E7D8360020C7
S214008FC010B50A4A0A4913889BB243F440731380CB
S214008FD08847084B9847084B9847084B984740F6F1
S214008FE0FF70074BBDE81040184700BF0040004127
S214008FF0F192000005930000559000001D930000BC
S21400900005900000C10707D50E4A0F4B136243F6C2
S214009010FD7153680B42FCD1820707D5094A0B4BFA
S214009020536243F6FD7153680B42FCD1030708D523
S214009030044A074BD36243F6FD7153680B42FCD1DA
S21400904070477047001C0040070101000701080038
S21400905008010100014B01225A71704700080040C8
S21400906070B48E08448AE507FCD54AF2155484800D
S214009070448AE407FCD54BB1C2EB86061446256845
S214009080A5510434A51AADB2AB42F8D8438ADB0723
S214009090FCD54AF20353416170BC8380704700BF21
S2140090A0F0B41D4A1D4B17889B78DE0730D4BFB23C
S2140090B0538ADD07FCD51388194D17499BB24FF428
S2140090C025441380556194804B8ADC07FCD51449EF
S2140090D0114B144E4AF215554AF204549D805A8A92
S2140090E0D207FCD502680A6042684A6082688A60D5
S2140090F0C268CA6059619C805A8AD207FCD5103172
S214009100B14200F11000E9D11F800020F0BC70478A
S2140091106FF01000FAE700BF004000410020004159
S214009120004080000042800010B401610B88114CA2
S214009130114A206023F0C0039B049B0C4FF00054A0
S2140091400B80C2F88040BFF34F8FBFF36F8F4FF096
S2140091508043C2F88030BFF34F8FBFF36F8F00207D
S214009160C2F88041C2F88031146013605DF8044B89
S214009170704700BFDC36002000E100E04FF40070CE
S214009180704700BF0369986880B2704721F4FF51AA
S214009190026921F01F01538ADB07FCD54AF201530E
S2140091A051619380704700BF10B4034C0069A44619
S2140091B05DF8044B604700BF619000000369C1F38F
S2140091C04F319A69012303FA01F111420CBF184688
S2140091D0002070470A4B186803691A8AD20704D51C
S2140091E001221A8203684BB118471A8A92B22AB132
S2140091F040F25E221A824368002BF5D1704700BF0A
S214009200DC360020004B1847D591000070B5A0F55D
S2140092100005A5F58045B5F5007F0BD2124E451822
S214009220B5421BD85C1E21440844B0420FD96FF0EB
S2140092300C0070BDA0F18014042C12D80B4E4518FB
S214009240B5420BD85C1E21444418B442EFD82946D8
S21400925010461A46064B9847002070BD6FF00D006A
S21400926070BD6FF01A0070BDFF4180008400800062
S214009270B7010100F0B5A0F50004A4F58044B4F5EC
S214009280007FADF5017D1CD2164D4418AC4223D8A4
S2140092905C1E0C440444AC4221D81D4616460C46BF
S2140092A0114F01464FF400726846B8472A463146C9
S2140092B00DEB0400B84768460C4B98470DF5017D4A
S2140092C0F0BDA0F18010052834BF6FF010006FF0DD
S2140092D01A000DF5017DF0BD6FF00D00F9E76FF097
S2140092E00C00F6E7FF418000B7010100A1900000E6
S2140092F0034BDA69012102F47C52DA611974704773
S21400930000140040034A044B53611369DB07FCD585
S214009310704700BF00100040022E6002184A232348
S2140093205363D36B13F0060FFBD1164B93631449AC
S214009330022382F83030CB6B9B07FCD42C23104AD8
S2140093408B64136D13F0060FFBD10E4BD3640C49E0
S214009350022382F844300B6D9807FCD4084B02E0D9
S2140093601A6C900702D41A6CD207F9D5044B02E0A7
S2140093705A6D920702D45A6DD107F9D5704700BFCF
S214009380001000404000020000B50C4A937883B0FD
S214009390DBB20193019B990707D5094B1B6823B1E4
S2140093A05068984703B05DF804FB019BDB07F9D5CE
S2140093B0034B5B68002BF5D0004AF1E70000024142
S2140093C074F1002070B4104D06460FCD87B06C4681
S2140093D00FC495E8030084E803006A46002352F8A9
S2140093E0041BB14207D00133062BF8D14FF0FF30F3
S2140093F007B070BC7047DBB2D81E18BF4FF0FF3006
S21400940007B070BC704700BF54110100F0B5056985
S214009410154E4FF480343C2703E0013C1BD09B07DD
S21400942013D12B7E0B6077740B68AA7D13F0800037
S2140094301FFA83FEF1D02E218023A6F82CE0328678
S21400944071742B766FF00400F0BD3E237374A6F89B
S2140094502CE03286F0BD21237374A6F82CE0328609
S2140094606FF00400F0BD00BF00FF0120F8B52A4BE6
S214009470054608460C469847E3692849C7B27E0069
S21400948013F0010F06EB070301EBC303DA6917D1EC
S21400949002F01C00E3699B07FCD123689B0709D5F3
S2140094A0236823F002032360E3699B07FCD1E3698A
S2140094B09B07FCD440F001002060E3699807FCD1CC
S2140094C0E369DB07FCD42260E3699807FCD1F31953
S2140094D001EBC3031B6A6360E3695B07FCD4F31903
S2140094E001EBC303C2F301625B6AE360AA81636AAD
S2140094F0012A94BF0022012223F4804343EA8232E9
S2140095006262E06910F00400FBD13E4401EBC60144
S2140095104B8DEB81F8BD00BFC593000054110100D0
S2140095200161014B184700BF6D94000003691A687B
S21400953022F002021A60DA699207FCD11A6842F039
S21400954001021A60D86910F00100FBD1704700BF15
S21400955030B403691A6842F002021A60DA699107A9
S214009560FCD1042410254FF6FF71D86910F00400D2
S214009570FBD15A8BC2F30112012A0AD00139F4D169
S214009580013C04D05D83DA695207FCD4EBE76FF048
S214009590050030BC704700BF03691A6822F002025B
S2140095A01A60D86910F00300FBD170472DE9F04728
S2140095B043880469DE0582B000F127824B889BB29F
S2140095C043F480734B8082460F4607C98AE807003B
S2140095D0636843F480736360E3695D07FCD4DAF87C
S2140095E004302268012B636800F07A8123F480231C
S2140095F06360E3695B07FCD4BAF800305A0552D5BD
S214009600BAF80220D60706D5BAF8022092B242F47B
S2140096108062AAF8022040F2FE7202EA4302E36980
S2140096205D07FCD4636A03F4804343F400431343AA
S2140096306362E3695807FCD401A95046B04EB14DA9
S214009640B0473B236B742168019AE3695B07FCD43F
S214009650638B12F0010F9BB238D09A0761D50122B6
S2140096602276BAF8022092B242F48052AAF8022079
S214009670BAF8022022F48072120413F0010F4FEAA7
S2140096801242AAF8022014BF6FF004006FF0030025
S214009690BAF8023023F480731B041B0CAAF80230BD
S2140096A002B0BDE8F087BAF802105A00D2B201F054
S2140096B001031A43E3695907FCD4636A03F4804341
S2140096C01A436262E3695A07FCD4B5E7920742D5AB
S2140096D0DAF80420002A00F0AA81580700F1A781D2
S2140096E0013ACAF80420C1F3C061002A40F01B8189
S2140096F049B9636843F480236360E3695807FCD480
S214009700002A40F01281BAF802301B0400F1808172
S214009710BAF8023023F480731B041B0CAAF802303C
S21400972003E1580700F18881BAF802305B0500F1C2
S2140097300981DAF80420002A40F02C81BAF80230B9
S2140097401A0400F15A81BAF8023023F480731B041D
S2140097501B0CAAF8023000234FF03A084FF002091B
S214009760BAF80220D2052ED501A95046B04785F892
S2140097701180002840F0A880019B2168E26952070A
S214009780FCD4628BD80792B221D5900754D501231A
S2140097902376BAF802309BB243F48053AAF802301C
S2140097A0BAF8023023F480731B041B0CAAF80230AC
S2140097B012F0010FBAF8022014BF6FF004036FF026
S2140097C00303D205D0D4184602B0BDE8F08713F0E4
S2140097D00203C5D0DAF80430002B00F0CE80500724
S2140097E000F1CB805A1ECAF80420C1F3C061002ADB
S2140097F045D139B9636843F480236360E3695B0746
S214009800FCD45AB9BAF802301A047DD4BAF8023039
S21400981023F480731B041B0CAAF80230DAF8082025
S214009820531CCAF80830E36913F00403FBD1A16A9D
S214009830117084F8189093E7510700F1B980BAF8D0
S2140098400230580520D5BAF80030DB0903F00602CE
S214009850E3695907FCD4636A03F4804343F0F103D9
S21400986013436362E36913F00403FBD1BAF80220E2
S21400987022F480621204120CAAF8022070E7012A71
S214009880CCD10029CAD0B5E7DAF804206AB9BAF80C
S21400989002301A0476D4BAF8023023F480731B041C
S2140098A01B0CAAF8023000235AE7DAF808100B78E7
S2140098B0A362E36913F00403FBD10131013ACAF84D
S2140098C00810CAF804204BE77B881D047FF5E0AE3D
