:1000000058320020D90200005103000051030000C3
:1000100051030000510300005103000000000000E4
:10002000000000000000000000000000510300007C
:1000300051030000000000005103000051030000C4
:100040005103000051030000510300005103000060
:100050005103000051030000510300005103000050
:100060005103000051030000510300005103000040
:100070005103000051030000510300005103000030
:100080005103000051030000510300005103000020
:100090005103000051030000510300005103000010
:1000A0005103000051030000510300005103000000
:1000B00051030000690600003D06000051030000E6
:1000C00051030000510300005103000051030000E0
:1000D00051030000510300005103000051030000D0
:1000E0005103000051030000000000000000000068
:1000F0000000000011070000510300005103000040
:10010000510300005103000051030000510300009F
:10011000510300005103000051030000510300008F
:10012000510300005103000051030000510300007F
:100130005103000051030000C9070000C10700007F
:10014000B90700004D0700005103000051030000F3
:1001500051030000510300000000000000000000F7
:10016000000000000000000000000000000000008F
:1001700000000000000000005103000051030000D7
:10018000510300005103000051030000510300001F
:100190000000000051030000510300005103000063
:1001A00051030000510300005103000051030000FF
:1001B00051030000510300005103000051030000EF
:1001C00051030000510300005103000051030000DF
:1001D00051030000510300005103000051030000CF
:1001E00051030000510300005103000051030000BF
:1001F00051030000510300005103000051030000AF
:100200005103000000000000000000005103000046
:10021000510300005103000051030000510300008E
:10022000510300005103000051030000510300007E
:10023000510300005103000051030000510300006E
:10024000510300005103000051030000510300005E
:10025000510300005103000051030000510300004E
:100260000000000010B5054C237833B9044B13B1DE
:100270000448AFF300800123237010BD002200204A
:1002800000000000004000000C4B43B10C480D4939
:1002900010B5AFF300800C48036823B910BD0A48BD
:1002A000036833B97047094B002BF7D0BDE8104005
:1002B0001847064B002BF5D0184700BF0000000080
:1002C0000040000004220020004000000000000068
:1002D000004B1847C503000008B5144A144B9A4256
:1002E00018D1144B144A002193421CD3134A144BC7
:1002F00022F07F029A60D3F8882042F47002C3F89B
:100300008820BFF34F8FBFF36F8F0E4B98470E4B74
:100310009847FEE70D49043A8B42E2D252F8040FA7
:1003200043F8040BF8E743F8041BDDE7800D0000F9
:10033000002200200022002058220020000000009F
:1003400000ED00E0190B00004D0900000022002024
:1003500008B5014CA047FDE7CD080000024A13692B
:1003600043F04003136170470008004010B5044B90
:10037000984704490448054BBDE81040184700BFA2
:100380005D0300000040004128220020110400000D
:10039000024A536943F48073536170470008004078
:1003A00010B5044B98470448044B0360BDE8104067
:1003B000034B184791030000442200200020004016
:1003C000D107000010B5044B9847044B9847044BE5
:1003D000BDE81040184700BFD90400006D030000BD
:1003E000A1030000EFF31083036072B6BFF35F8FC9
:1003F0007047BFF35F8F036883F3108870474369CA
:1004000003B118477047836903B11847704700006C
:1004100010B5044B0446984718B9034B2360034BAF
:10042000636010BD9D050000FF030000070400008D
:100430002DE9F0471F46224B06460D469146984748
:10044000204B044630469847B7F5007F2FD86043CD
:10045000A84230D37B1998422DD31B4CDFF874800F
:1004600023684FEA553A9A451FD029463046C0477F
:1004700018B16FF01000BDE8F08725F4FF5121F0AE
:100480001F013046114B9847C4F800A001242946AB
:100490003046C0470028ECD1294630463B464A4604
:1004A0000B4DA8472046BDE8F0870024EFE76FF02A
:1004B0001E00BDE8F0876FF00D00BDE8F08700BFBB
:1004C000E9050000EF0500001C220020F7050000F0
:1004D000110600002506000010B50A4A13889BB2D9
:1004E00043F4A0631380084B9847084B9847084B88
:1004F0009847084B984740F6FF70074BBDE81040FF
:10050000184700BF0040004171060000910600003E
:1005100055050000A90600001D050000C2070AD409
:10052000830707D5084B094A5A6243F6FD7259689A
:100530001142FCD17047044B054A1A6243F6FD7222
:1005400059681142FCD1EBE7001C00400001030098
:1005500007010100014B01225A7170470008004059
:1005600070B58E08448AE507FCD54AF2155484809C
:10057000448AE407FCD5C2EB86061446A51AADB240
:100580009D4207D3438ADB07FCD54AF203534161FE
:10059000838070BD2568A5510434EFE701610B88A5
:1005A00023F0C0039B049B0C0B800D4B18600D4B7C
:1005B0004FF00051C3F88010BFF34F8FBFF36F8F20
:1005C0004FF08042C3F88020BFF34F8FBFF36F8F8F
:1005D0000020C3F88011C3F8802119601A607047A9
:1005E0002022002000E100E04FF400707047036912
:1005F000986880B2704721F4FF51036921F01F0110
:100600005A8AD207FCD54AF2015259619A80704742
:1006100010B4034C0069A4465DF8044B604700BF6A
:10062000610500000369C1F34F319A69012303FAA0
:1006300001F111420CBF184600207047094B1868A1
:1006400003691A8AD20704D501221A82036843B1CA
:1006500018471A8A92B222B140F25E221A82436887
:10066000F5E7704720220020004B18473D060000A8
:10067000064B42F28E329A8200229A75DA75DA6956
:1006800002F47C52DA6101221A74704700140040AF
:10069000034B044A5A611A69D207FCD5704700BF60
:1006A00000100040022E6002174B23225A63DA6BBF
:1006B00012F0060FFBD1154A9A63022283F830200C
:1006C000114A1346D16B8807FCD42C2191641A6D12
:1006D00012F0060FFBD10D4ADA64022283F844209F
:1006E000094A136D9907FCD4074B1A6CD20702D440
:1006F0001A6C9007F9D5044B5A6DD10702D45A6D84
:100700009207F9D5704700BF00100040400002007A
:1007100007B50C4A9378DBB20193019B990707D583
:10072000094B1B6823B15068984703B05DF804FB80
:10073000019BDB07F9D5044B5B68002BF5D0014A20
:10074000F1E700BF0000024148220020194B10B51C
:1007500018688469237EDA0708D5A37DDB0705D5F1
:10076000012323750368BDE810401847237E9907CD
:1007700006D5A37D9A0703D5022323758368F2E784
:10078000237E5B070CD5638B03F0370313B1FF2384
:10079000638310BDA16A4368C9B2BDE81040184721
:1007A000237EDB09F5D080232376C3689847638BCB
:1007B0009BB2EDE724220020004B18474D070000B4
:1007C000004B18474D070000004B18474D0700002D
:1007D00003689A6812F00E0FFBD11A78D20913D170
:1007E0009A6812F00E0FFBD11A7892070CD41A787F
:1007F00002F0FB021A70986810F00E00FBD15A78D4
:1008000002F0F0025A7070476FF01000704700005D
:10081000BFF34F8F0549064BCA6802F4E0621343E9
:10082000CB60BFF34F8F00BFFDE700BF00ED00E0DE
:100830000400FA05064B82B2C3F88800000C42F0AF
:10084000804240F04040C3F8A820C3F8A800704799
:1008500000800041134A137813F0010F124B05D0AA
:1008600001221A749A6801329A60704711788806DA
:1008700004D5DA680132DA600222F2E711788907DA
:1008800002D41178480701D50522EAE71178C90694
:1008900001D50322E5E71278C2F38012002AE0D0E6
:1008A0000422DEE7000C004000FF012044F20403B4
:1008B0001A684FF48043196881F3088802498B60F5
:1008C00072B61047704700BF00ED00E010B502207F
:1008D000114CA04711490223C1F8943091F8C1305E
:1008E00003F0FE0381F8C1300420A0470423C1F8BF
:1008F000943091F8C23003F0FE0381F8C230012039
:10090000A0470123C1F8943091F8C03003F0FE03F2
:1009100081F8C03010BD00BF3508000000800041E4
:1009200007B5074B01A89847064B9A680AB9A52254
:100930001A7301A8044B984703B05DF804FB00BF8D
:10094000E503000000200040F30300002DE9F84318
:10095000554C564F6368DFF88C81BB4206D1236843
:10096000434503D100236360514B9847514B98474F
:100970002368434506D0002363602374A360E360CB
:10098000C4F800804C4B1B68013301D04B4B984797
:100990004B4D4C4E0220A8474B490223C1F89430DE
:1009A00091F8C13003F0FE0381F8C1300420A8475C
:1009B0000423C1F8983091F8C23003F0FE0381F8A7
:1009C000C2300120A8470123C1F8983091F8C03007
:1009D00003F0FE0381F8C030F0683C4B984250D8D9
:1009E000316999424DD888424BD20131384B0022AF
:1009F000091A9847B668331A5E425E41DFF8E890FC
:100A0000324BD9F80C0098424AD8D9F810109942C4
:100A100046D8884244D20131091A2D4B002200F5F4
:100A2000E0309847D9F80830984239D136B1236878
:100A3000434537D16268274B9A4233D10420A847F7
:100A4000214BDFF8A880244F244E0422C3F89820BD
:100A500093F8C22002F0FE0283F8C2204FF48045D2
:100A600005F5E03229464FF40073404605F5007560
:100A7000B847B047B5F5003FF2D100236360184B8B
:100A800098470026BAE70120A8470F4B0122C3F878
:100A9000942093F8C02002F0FE0283F8C020FEE705
:100AA000002EF0D06760EAE700FF0120AA9988775E
:100AB000AD080000D1020000FC3F00005508000016
:100AC0003508000000FF010000800041FFFF010029
:100AD000F10A000044332211310400002109000012
:100AE00011080000DCACBAAB00BF030028220020D4
:100AF00010B5084C0144884201D1104610BD10F8D1
:100B0000013B83EA122334F8133083EA022292B2C3
:100B1000F1E700BF600B000070B50D4E0D4CA41B3B
:100B2000A4100025A54209D10B4E0C4C00F018F979
:100B3000A41BA4100025A54205D170BD56F8253090
:100B400098470135EEE756F8253098470135F2E72A
:100B50006C0D00006C0D00006C0D0000700D0000AD
:100B600000002110422063308440A550C660E77029
:100B7000088129914AA16BB18CC1ADD1CEE1EFF1D1
:100B80003112100273325222B5529442F772D66279
:100B9000399318837BB35AA3BDD39CC3FFF3DEE321
:100BA0006224433420040114E664C774A4448554C9
:100BB0006AA54BB528850995EEE5CFF5ACC58DD571
:100BC0005336722611163006D776F6669556B44619
:100BD0005BB77AA719973887DFF7FEE79DD7BCC7C1
:100BE000C448E5588668A778400861180228233869
:100BF000CCC9EDD98EE9AFF9488969990AA92BB911
:100C0000F55AD44AB77A966A711A500A333A122AB8
:100C1000FDDBDCCBBFFB9EEB799B588B3BBB1AAB60
:100C2000A66C877CE44CC55C222C033C600C411C08
:100C3000AEED8FFDECCDCDDD2AAD0BBD688D499DB0
:100C4000977EB66ED55EF44E133E322E511E700E58
:100C50009FFFBEEFDDDFFCCF1BBF3AAF599F788F00
:100C60008891A981CAB1EBA10CD12DC14EF16FE1E0
:100C70008010A100C230E320045025404670676018
:100C8000B9839893FBA3DAB33DC31CD37FE35EF330
:100C9000B1029012F322D232354214527762567268
:100CA000EAB5CBA5A89589856EF54FE52CD50DC580
:100CB000E234C324A01481046674476424540544B8
:100CC000DBA7FAB79987B8975FE77EF71DC73CD7D0
:100CD000D326F2369106B016576676761546345608
:100CE0004CD96DC90EF92FE9C899E9898AB9ABA920
:100CF0004458654806782768C018E1088238A32858
:100D00007DCB5CDB3FEB1EFBF98BD89BBBAB9ABB6F
:100D1000754A545A376A167AF10AD01AB32A923AA7
:100D20002EFD0FED6CDD4DCDAABD8BADE89DC98DBF
:100D3000267C076C645C454CA23C832CE01CC10CF7
:100D40001FEF3EFF5DCF7CDF9BAFBABFD98FF89F0F
:100D5000176E367E554E745E932EB23ED10EF01E47
:100D6000F8B500BFF8BC08BC9E4670478902000079
:100D7000F8B500BFF8BC08BC9E467047650200008D
:043FFC0001000500BB
:00000001FF
